:0400000080312E28F5
:100008007E1480312000911F0D2891310C21803100
:100018002C282100911C17282000911C17289131A9
:10002800182180312C282000901E1E289131002193
:1000380080312C28921C24289131242180312C28AD
:100048002100111E2C282000111E2C289131A621D8
:100058007E10090088312B282000B20A32080339A3
:10006800031D38289022803120008627803103190B
:10007800412881278031031D422869287C27803147
:1000880001180800811C41287B3086002330362562
:100098008031031941287B30860023303625803192
:1000A800013A031966282E258031023A0319662879
:1000B8002E258031033A031966282E258031043A0B
:1000C800031D6828692080319F28FA017A35D23EBD
:1000D80064258031C83ED5248031031879287A35C3
:1000E800E72480310318810A8F287A35C83E6425B1
:1000F8008031D23ED5248031031886287A35CB2426
:1001080080318F287A35D23E860087017A35C83EFD
:100118009631FA2680317A355C257A35BE3E8600DE
:10012800413F8A00403F0A0005308031FA0A7A02CE
:10013800031808006A28203021006102031CB9282E
:1001480020306106031DB2287B30860023308700EB
:100158007C258031303EE8208031B928403061026A
:10016800031CB928403061060319E10A7B30860078
:1001780023308700811F08007C258031053A031948
:10018800CF28033A0319D528013A0319DB280F3A77
:100198000319E128E72820002B08F7002A08F600B1
:1001A800702920002B08F7002A08F6001F292000D4
:1001B8002B08F7002A08F600212A20002B08F70050
:1001C8002A08F600C1290800F1007E30F2010B214F
:1001D800803107300B218031F207A1300B218031AB
:1001E800F20730300B218031F20730300B2180319B
:1001F800F20730300B218031F20771080B21803172
:10020800F20772080B218031EF300B210800F00053
:100218002000600803190C292100111A17297008F9
:1002280023009A001B294425803170086C25210081
:10023800111670080800BC2480310530F101F00760
:100248000318F10A7708F3007608F2004724803192
:100258007108CB007008CA00AA30860000308700F9
:1002680040308400003085000A30F80016001A007B
:10027800F80B3A2947084B02031D442946084A024D
:1002880003184B294A08C6024B08C73B4D29C6012B
:10029800C701CC014C35403E3C258031C83E0A257B
:1002A800803103185D294C35E72480310318810A11
:1002B80069294C35C83E3C258031403E0A258031AD
:1002C800031869294C35CB2480310530CC0A4C02FF
:1002D800031C4E29A8240800BC2480310630F101F3
:1002E800F0070318F10A7708F3007608F2004724AC
:1002F80080317108CB007008CA00B4308600003025
:10030800870040308400003085000A30F80016006D
:100318001A00F80B8B294A08C6074B08C73D03305B
:100328004702E93003194602031C9E29E830C6003B
:100338000330C700CC014C35403E4C258031C83EC7
:10034800222580310318AE294C35E7248031031863
:10035800810ABA294C35C83E4C258031403E2225B9
:1003680080310318BA294C35CB2480310530CC0AAA
:100378004C02031C9F29A8240800BC2480310530A6
:10038800F101F0070318F10A7708F3007608F20084
:10039800472480317108CB007008CA0054308600A9
:1003A8000130870040308400003085000A30F800B2
:1003B80016001A00F80BDC2945084B02031DE62934
:1003C80044084A020318ED294A08C4024B08C53BF1
:1003D800EF29C401C5014A08C6074B08C73D0330C9
:1003E8004702E93003194602031CFE29E830C6001B
:1003F8000330C700CC014C35403E54258031C83EFF
:10040800FE24803103180E2A4C35E7248031031866
:10041800810A1A2A4C35C83E54258031403EFE24B4
:10042800803103181A2A4C35CB2480310530CC0A88
:100438004C02031CFF29A8240800BC24803110307A
:10044800F101F0070318F10A7708F3007608F200C3
:10045800472480317108CB007008CA00A03086009C
:100468000030870040308400003085000A30F800F2
:1004780016001A00F80B3C2A4A08C4074B08C53D69
:1004880003304502E93003194402031C4F2AE830BF
:10049800C4000330C50047084B02031D552A46080F
:1004A8004A0203185C2A4A08C6024B08C73B5E2A60
:1004B800C601C7014A08C8074B08C93D03304902AD
:1004C800E93003194802031C6D2AE830C8000330DC
:1004D800C900CC014C35403E74258031C83E1625F4
:1004E800803103187D2A4C35E72480310318810AAE
:1004F800892A4C35C83E74258031403E1625803106
:100508000318892A4C35CB2480310530CC0A4C029B
:10051800031C6E2AA8240800B6183F2BA001A101CD
:10052800080030087B238031CA004A35D23EF000EB
:10053800E830F101F2000330F300F401F40AF501A8
:1005480082248031360E890C0739031D08004A358C
:10055800D23E860087014A08C4007E30F524840014
:100568004508473D97316727080030087B238031CD
:10057800CA004A35D23EF000F101F201F301F4015C
:10058800F40AF5015C248031A62AEE248031031D8B
:100598000800B61030087B238031CA00D230F6003C
:1005A8004A080A2480310130FE2321005C14080027
:1005B800EE248031031D0800B61036081F39403874
:1005C800B600B7010130FE230800EE248031031D78
:1005D8000800B61036081F396038B600B701013078
:1005E800FE230800EE248031031D0800B6103608EB
:1005F8001F398038B600C8014808C400DA30F5242D
:1006080086004508473D870048358D31EB25803108
:100618000530C80A4802031C002B0130FE230800DD
:10062800EE248031031D0800B61036081F39A038A3
:10063800B600C9014908C400E630F524860045081B
:10064800473D870049358D31EB2580310530C90A92
:100658004902031C1E2B0130FE230800EE248031C2
:10066800031D0800B61036081F392038B600B70138
:100678000130FE2308003008063A0319322B163AD7
:100688000319DC2A013A0319F62A033A0319E92A5D
:10069800013A0319142B533A0319B92A013A0319D9
:1006A800952A053A0319952A013A0319952A0D3A0C
:1006B8000319B92A013A0319B92A053A0319C92AAB
:1006C800013A0319C92A1D3A0319C92A013A03191B
:1006D800C92A053A0319B92A013A0319B92A0D3A60
:1006E8000319952A013A0319952A7A2B0800F10073
:1006F800FF30F0009A2BF001FC2BF001F00AFC2BE4
:100708000230982B0330982B0430982B7108E53E63
:10071800982B7108F13E982B7108F43E982B7108BC
:10072800FC3E982B7108043EF000FC2B7108043A3B
:100738000319962B013A0319962B0D3A0319932B9B
:10074800013A0319932B033A0319932B013A03191E
:10075800932B073A0319902B013A0319902B033A6C
:100768000319902B013A0319902B1B3A03198D2B6F
:10077800013A03198D2B033A03198D2B013A0319FA
:100788008D2B0B3A03198A2B013A03198A2B033A4A
:1007980003198A2B013A03198A2B5F3A0319882B0C
:1007A800013A0319882B053A0319862B013A0319D4
:1007B800842B0D3A0319862B013A0319842B053A29
:1007C8000319862B013A0319842B1D3A03197F2B31
:1007D800013A0319812B053A03197F2B013A0319B2
:1007E800812B0D3A03197F2B013A0319812BFC2B1E
:1007F80070080800F100F000F00DF00D21005C0811
:10080800700603397006DC00B9240800C200043001
:10081800420203180800C301760886008701403F9A
:10082800C000413FC1000330F60AF60A4102E93030
:10083800031940020318412C4308F700F801F73563
:10084800F80D4208F0000A30F101F200F3014724E4
:1008580080318830F9002330FA0070087907FB00EE
:1008680071087A3DFC0077087B07860078087C3D94
:1008780087004008C03F4108C13F0530C30A430212
:1008880003180800102CF401F501701C4F2C720895
:10089800F4077308F53DF235F30DF136F00C7008E6
:1008A8007104031D492C7508F1007408F000080054
:1008B8007008860071088700403FF600413FF70046
:1008C80074087207F8007508733DF9007708790213
:1008D800031D702C7608780270088600710887005E
:1008E80003187D2C7408810241317508813B7F31E2
:1008F80008007208C03F7308C13F080070088600EE
:1009080071088700403FF600413FF70074087607FA
:10091800F8007508773DF90073087902031D962CD5
:100928007208780270088600710887000318A32CE3
:100938007408810741317508813D7F3108007208CC
:10094800C03F7308C13F0800F40174355C25743555
:10095800BE3E8600413F8A00403F0A000530843190
:10096800F40A740203180800A92C280017150800B7
:100978007B3086002330870042310108003E840026
:1009880098300318013E85000008F0000800C83EB2
:10099800860001308701810200304131813B7F317F
:1009A80008008600403FF600413FF7007608013E08
:1009B800F8000030773DF90075087902031D08003A
:1009C800740878020800C83E860001308701810754
:1009D80041310800A00A0319A10A023021062004A7
:1009E8000800C501C435C50DC6002330C70044083A
:1009F800460708008600403FFA00413FFB0079089F
:100A08007B02031D080078087A0208008600403F30
:100A1800FA00413FFB0079087B02031D08007808B3
:100A28007A0208008600403FFA00413FFB0079083F
:100A38007B02031D080078087A0208008600403F00
:100A4800FA00413FFB0079087B02031D0800780883
:100A58007A0208007B308600010CFD00FD0C7D0C3D
:100A68000F390800010CFD00FD0C7D0C0F39080042
:100A780086008701403FF800413FF9004C350800E7
:100A8800111220003408203E86000130870008003B
:100A980086008701403FF800413FF9004C350800C7
:100AA80086008701403FF800413FF9004C350800B7
:100AB800C83E86008701403FF000413FF100080032
:100AC80086008701403FF400413FF5007A35080071
:100AD80081002030B40A34020318B401E00308008E
:100AE80086008701403FF800413FF9004C35080077
:100AF800010CFC00FC0C7C0C0F390800F7012000ED
:100B08001A08FB001908FA0099019A013B2E0730D0
:100B18007B02D13003197A02031C080009307B02DA
:100B2800C43003197A02031808003608E339043878
:100B3800B600A201A301AF017027080000307B02B4
:100B4800DD3003197A02031CB22D01307B025430C8
:100B580003197A020318B22DAF0AD02D02307B0296
:100B6800D13003197A02031CCE2D03307B02C0302A
:100B780003197A020318CE2D0130F300F4012F0A6D
:100B8800C72DF335F40D890BC52D7308A20474081D
:100B9800A304B02DE330B60510302F02031C080063
:100BA800360C890C0739013A031DE32D230A220468
:100BB800031D1C2E3608E3390838B6001E2E360CE5
:100BC800890C0739023A031D1E2E6D27803120003B
:100BD8002208F9002308F700770FF42D0130F52DCE
:100BE8000030F300F4017906F5007408F600750486
:100BF80003191C2E79084B268031F800780F062E31
:100C0800FF30092E780B0C2E7908B00036141C2EF4
:100C1800033078060319142E02307806031D1C2EA3
:100C28007908B0003608E3390C38B600AE011E2E3C
:100C3800E330B605A201A301AF01080003307B022F
:100C4800E93003197A02031C080004307B02E23001
:100C580003197A020318080004302E020318362EEE
:100C6800AE0A0800B6140800E330B6050800360CD2
:100C7800890C073903198B2D013A0319A22D033A60
:100C88000319A22D013A0319222E382E0800F2006A
:100C9800F101360E890C0739031D032F5D307206EA
:100CA80003195A2E5C307206031D5D2EF101F10AFC
:100CB8006B2F103072060319712E1130720603194A
:100CC800712E123072060319712E13307206031931
:100CD800712E06307206031D732E03300E2F7C27EB
:100CE80080318118B22E6B2F5A2E7C278031011843
:100CF8005A2E7327803103195A2E73278031013AEF
:100D080003195A2E73278031023A03195A2E732772
:100D18008031033A03195A2E73278031043A031994
:100D28005A2E6B2F7C27803101186B2F7327803147
:100D3800031D5A2E6B2F7C27803101185A2E7327DA
:100D48008031031D5A2E02300E2F7C278031011866
:100D5800A72E732780310319A72E6B2F7208143A18
:100D680003195A2E013A03195A2E033A03195A2E17
:100D7800013A03195A2E0F3A0319792E013A031929
:100D8800792E033A0319962E013A0319962E073A3B
:100D98000319782E013A03195A2E033A03195A2EC9
:100DA800013A03195A2E5F3A0319A92E013A031979
:100DB800A92E053A0319A92E013A0319A92E0D3AAD
:100DC8000319A92E013A0319A92E053A03199F2ED2
:100DD800013A03199F2E1D3A03199F2E013A031950
:100DE8009F2E053A0319A92E013A0319A92E0D3A87
:100DF8000319A92E013A0319A92E022F6B2F862752
:100E080080310319102F812780310319102F3F2FAC
:100E1800A72EFF30F1006B2F7208073A03195A2EDC
:100E2800473A0319A72E013A0319A72E053A0319C1
:100E3800A72E013A0319A72E0D3A0319A72E013A36
:100E48000319A72E053A03195A2E013A03195A2EE7
:100E58001D3A0319782E013A03195A2E053A031937
:100E6800A72E013A0319A72E0D3A03190C2F013AA0
:100E780003190C2F0D2F8B27803103194B2F902727
:100E8800803103194B2F95278031031D6B2F720872
:100E9800043A03195A2E013A03195A2E0D3A031926
:100EA8005A2E013A03195A2E033A03195A2E013AB7
:100EB80003195A2E073A0319782E013A03195A2EA4
:100EC800033A03195A2E013A03195A2E0D2F7108A5
:100ED80008002100911408002100911008007B30BF
:100EE80086002330010CF000F00C700C0F3908005C
:100EF8007B308600233087000800360E890C0739BE
:100F0800053A0800360E890C0739043A0800360EEF
:100F1800890C0739013A0800360E890C0739023A5C
:100F28000800360E890C0739033A08005C0C890C56
:100F38003F390319BD2F2000B30A33080739031DB1
:100F480008002100DC1CB92FCA2721005C0CF00026
:100F5800700C3F39F000F003F00DF00D5C087006DE
:100F680003397006DC00DC100800C1272100DC14FE
:100F78000800D3272000B301080025009313971316
:100F88002600931397132C00991308002500931734
:100F980097172600931797172C0099170800280011
:100FA80017110800C8340034C834003490340134B0
:100FB80040340134903401340034003400340034B7
:100FC800E8340334C834003400340034F4340134D1
:100FD800F4340134F4340134C8340034F4340134C2
:100FE800073408345A3411347E3411346C341134D3
:040FF8004834113434
:10100E007E1C0A281C2820004E08D0004D08CF0058
:10101E000630CF35D00D890B10284F082C009700C5
:10102E00200050082C00980008007108F30070088A
:10103E00F2000630F235F30D890B212872082C00D0
:10104E009700730898000800D6308400873085001A
:10105E00A0308600003087000030FF00283091312C
:10106E003C218831F6308400903085005430860063
:10107E00013087000030FF000A3091313C21883169
:10108E007B308400233085007530FE000030FF0079
:10109E00913130218831203084000030850020309D
:1010AE00FE000030FF00913130218831C8308400BD
:1010BE00003085001A30FE000030FF0091313021E3
:1010CE00883120308400013085002030FE00003051
:1010DE00FF009131302188317E10200076281023B8
:1010EE008831C72288318B170B17422388313A215A
:1010FE00883187218831B425883177228831B72508
:10110E00640087317C278831011899287B3086004E
:10111E002330811C99287B3086002330811F99282B
:10112E00C8208831722288317A228831F2228831A1
:10113E000223883107238831003A0319AD288731FD
:10114E007C278831011CAD28B92488310B238831C6
:10115E00003A0319872887317C278831011CC5285E
:10116E00360C890C0739043A0319C528360C890C3C
:10117E000739053A0319C52836248831BB22883130
:10118E0087281230192188314E08D8004D08D70013
:10119E0024082504031DD6288E268831E8285808F1
:1011AE002902031DDC28570828020318E0288E2682
:1011BE00883127085802031DE6282608570203180F
:1011CE00EC285808A7005708A600A40A0319A50A78
:1011DE0001302502003003192402031C0800A4016B
:1011EE00A5018B132B08CE002A08CD000F30CF009F
:1011FE00D0019531622526084D02D30027084E3BBB
:10120E00D40028085307D5002908543DD600550EA2
:10121E000F39AA00560EF039AA04560E0F39AB003C
:10122E008B1708002000D000CF00CF0DCF0D21006E
:10123E001D0820004F0603394F0621009D001D1486
:10124E000530890B2829000021009D142000111F54
:10125E002D29111321001C082000CE0021001B088F
:10126E002000CD0008000D302000D100FD30D00050
:10127E00A230890B4029D00B4029D10B4029000008
:10128E0064009531772588310A302000D100BE30B8
:10129E00D0007930890B5129D00B5129D10B51290E
:1012AE0087317C27883101195F292000D2016529F9
:1012BE007B309631ED2688312000D200D3015208C2
:1012CE0096310C2688310A302000D100BE30D00075
:1012DE007930890B7029D00B7029D10B7029013010
:1012EE009631222688310A302000D100BE30D0003F
:1012FE007930890B8029D00B8029D10B80290800E9
:10130E00712288314A269531622588314E08D900DE
:10131E004D08D80071222000D300013E86008701BF
:10132E000108D8070318D90A87317C27883101189C
:10133E00072A7B3086008118A529D32E7B308600A4
:10134E00233087007E2688310319052A7B308600DC
:10135E0023307E2688312100E0000130E1007B3011
:10136E00860023308700010C2000D300D30C530CD1
:10137E000F39013A0319CD29033A0319DB29013A32
:10138E000319E929073A0319F729062AB030072667
:10139E008831B23064268831B4306A268831B6304E
:1013AE005E268831B830342EBA3007268831BC30EC
:1013BE0064268831BE306A268831C0305E26883178
:1013CE00C230342EC43007268831C63064268831A8
:1013DE00C8306A268831CA305E268831CC30342E29
:1013EE00CE3007268831D03064268831D2306A2636
:1013FE008831D4305E268831D630342EE626080069
:10140E00E430D7012D268831D400D83021268831FA
:10141E00D8308600233087000318212A403FD3009E
:10142E00413FD4005902031D1E2A53085802031CC3
:10143E00422A352A403FD300413FD400E4302126D2
:10144E0088310318422AD8302D268831D40059020B
:10145E00031D332A530858020318402AE4302D2660
:10146E008831D4005902031D3E2A5308580203182E
:10147E00422AD701D70A570803195B2ADA015A08FC
:10148E00D300DA30DD258831EB2588315A08D300B8
:10149E00DA30DD258831C83E840010268831DA0A1C
:1014AE005A020318702A462ADA015A08D300E63087
:1014BE00DD258831EB2588315A08D300E630DD254D
:1014CE008831C83E840010268831DA0A5A02031C7D
:1014DE005C2AA02C3D342000361C08009131C52911
:1014EE0020001B140800111C08001110B9228831AD
:1014FE0099019A01E330B605B61C882AB42A36142F
:10150E00B52A3008403A0319862A013A0319862A69
:10151E00053A0319862A013A0319862A0D3A031948
:10152E00862A013A0319862A053A0319862A013AB0
:10153E000319862A1D3A0319862A013A0319862AA7
:10154E00053A0319862A013A0319862A0D3A031918
:10155E00862A013A0319862AB52AB6109631C6266E
:10156E008831772A1B100800360E890C07390319AB
:10157E000800BC0A0B303C02031C08009131BD2947
:10158E0082302000CD000530CE00EA228831903026
:10159E002000CD001130CE00E22288313030200004
:1015AE00CD000030CE00072788319A302000CD00C4
:1015BE000730CE000F2F4E082100E90020004D0805
:1015CE002100E80008004E082100E70020004D0829
:1015DE002100E600080021005C1C08005C101030A1
:1015EE002000D1007030D2007B30D3002330D400E5
:1015FE007530D500AA2F2000311D00343111013471
:10160E00B11C0034B11001342000311C00343110F3
:10161E0001345C25883129238831A4268831AF26F0
:10162E008831BE268831C826883133238831392344
:10163E008831A9258831932688319E268831EC275A
:10164E008831E42F6030320099009B0148309D00B4
:10165E0006309F009E0108008F30250093009101F7
:10166E009201842E8F309700950196011F08F33951
:10167E0004389F00080010302000CF007030D000DA
:10168E007B30D1002330D2007530D3003325883122
:10169E00DF015F08D6007E30B925883103195A0262
:1016AE00031C5E2B002688317E30CC2588315F08E6
:1016BE00D600DA30B925883103195A02031C6C2B77
:1016CE0000268831DA30CC2588315F08D600E63026
:1016DE00B925883103195A02031C7A2B002688314A
:1016EE00E630CC2588315F08D600B030B925883178
:1016FE0003195A02031C882B00268831B030CC25E2
:10170E0088315F08D600BA30B925883103195A02DC
:10171E00031C962B00268831BA30CC2588315F0801
:10172E00D600C430B925883103195A02031CA42BE4
:10173E0000268831C430CC2588315F08D600CE30E3
:10174E00B925883103195A02031CB22B00268831A1
:10175E00CE30CC258831DE015F08D600D701D635D4
:10176E00D70D5E083A269531622588318830D8002B
:10177E002330D9004D085807DA004E08593DDB00DA
:10178E0056085A07860057085B3D8700403FDC002D
:10179E00413FDD0003305D02E93003195C02031C9A
:1017AE00F62B00268831D901D835D90D5E083A2698
:1017BE009531622588318830DA002330DB004D0800
:1017CE005A07DC004E085B3DDD0058085C078600BA
:1017DE0059085D3D87005608C03F5708C13F043089
:1017EE00DE0A5E02031CB32B7B308600233087009B
:1017FE00010CD600D60C560C0F39D7000930570203
:10180E00031C0D2C7B30860087308105D830402696
:10181E00883103195602031C172CD83089268831BB
:10182E00E4304026883103195602031C212CE43083
:10183E00892688317B30860023308700053042317F
:10184E000102031C302C7D308600233087000430CB
:10185E0081000530DF0A5F02031C502B172F210079
:10186E005D0B482C00305F02FA3003195E0203183C
:10187E00482C54260430D100D20195313C258831B4
:10188E00742C02305D06031D5B2C03305F02E830C2
:10189E0003195E0203185B2C5426D101D10AD20122
:1018AE0095313C258831742CDD0153084902031D06
:1018BE00622C520848020318682CC80A0319C90A78
:1018CE00742C49085302031D6E2C4808520203184B
:1018DE00742C0130C8020030C93B2100DE0A031906
:1018EE00DF0A5E189F2C2000DB01DB0A5B35D23E3F
:1018FE0070268831C83E1526883103188D2C5B352D
:10190E008431E72488310318810A9A2C5B35C83E4E
:10191E0070268831D23E1526883103189A2C5B35F5
:10192E008431CB2488310530DB0A5B02031C7D2C0D
:10193E00A02C2000D1015135C83E86008701403FC2
:10194E00CD00413FCE005135BE3E8600413F8A005C
:10195E00403F0A008C3120000530D10A5102031895
:10196E000800A22C712288314A26953162258831D1
:10197E004E08DC004D08DB00712288312000D300B8
:10198E00013E860087010108DB070318DC0AD83008
:10199E00860023308700403FD700413FD800E43017
:1019AE008600403FD900413FDA005806031DE12C66
:1019BE0059085706031DFF2CDF015F08D300E630E0
:1019CE00F32588315F35EB2588315F08D300E6308B
:1019DE00F32588315F35C83E840010268831DF0A32
:1019EE005F02031CE42C2100DD01DE01DF01A02CCF
:1019FE0058085C06031D052D57085B06031D1B2D9D
:101A0E00DD015D08D300DA30F32588315D35EB2535
:101A1E0088310530DD0A5D02031C082D01302100DE
:101A2E00DD00DE01DF0108005A085C06031D212DD2
:101A3E0059085B06031D0800DE015E08D300E63080
:101A4E00F32588315E35EB2588310530DE0A5E02DE
:101A5E00031C242D0230162D5308D50055080319EA
:101A6E0008005008CE004F08CD004E2588312000CA
:101A7E00D400510886005208870054088100CF0A0E
:101A8E000319D00AD10A0319D20AD503352D4E08EF
:101A9E003100920020004D083100910015171514E9
:101AAE000000000031001308080022008C01803075
:101ABE008D008E01303021008C0060308D0005309D
:101ACE008E00043023008E008D018C0160302400C6
:101ADE008D008C0101308E0025008C018D018E0150
:101AEE0000308B1B01302000CD008B1378268831FF
:101AFE000F103D002508E0390C38A5002308E03909
:101B0E000D38A3001208E0390E3892002108E03992
:101B1E000F38A1002708E0390238A7003C0013084F
:101B2E00E039103893003D001F08E03914389F004B
:101B3E00782688310F1420004D1CA72D8B17080016
:101B4E008B1308008F30260093009101920125001F
:101B5E001F08CF3910389F00080020009717080083
:101B6E001F150800D701D635D70DD8002330D90060
:101B7E005608580786005708593D8700403FDA003F
:101B8E00413FDB0003305B02E934D901D835D90D72
:101B9E00DA002330DB0058085A07860059085B3DEF
:101BAE0087005608C03F5708C13F0800D401D335FF
:101BBE00D40DD5002330D60053085507860054089F
:101BCE00563D87005A350800D23E84008501403FBD
:101BDE00803F413F813F0800D401D335D40DD5005D
:101BEE002330D6005308550786005408563D87000B
:101BFE000800E830D6000330D7005F08D800080090
:101C0E00860023308700403F2100D200413FD300A1
:101C1E000800403F803F413F813F05348600403FF2
:101C2E00D900413FDA0058085A02031D0800570830
:101C3E00590208008600403FD500413FD6005408A7
:101C4E005602031D08005308550208008600233073
:101C5E008700403FD300413F08008600403FDA0036
:101C6E00413FDB000800CD000A30CE01CF00D0018D
:101C7E000800860023308700403FD600413FD70042
:101C8E0005305702A0348600870101082000CD00E0
:101C9E003C30CE01CF00D0010800C8302000CD006E
:101CAE000030CE00E830CF000330D00008008600B0
:101CBE00403FD800413FD90008008600403FD40085
:101CCE00413FD50008008600403FD600413FD70077
:101CDE00080086008701403FD700413FD8005B35A2
:101CEE00080055303C008F00AA308F000800010C10
:101CFE00D300D30C530C0F3908001F08FC390138E0
:101D0E009F00080086000030C03FC13F0800580801
:101D1E00A9005708A80008008F30260097009501EB
:101D2E00960125001F083F3940389F00080080307B
:101D3E002C00990097019801842E20009701D7302E
:101D4E009800FF3096009501901221009016080021
:101D5E00343020009B00C8309C0099019A0111106C
:101D6E0021001110200091132100911708007830E6
:101D7E0020009F00F9309E009D01911021009114CA
:101D8E0008007B3028009700F9309600950120005E
:101D9E0092102100921408007B30860023308700B9
:101DAE008110CD014D35D23E860000308701C03FF7
:101DBE00C13F0530CD0A4D0203180800D92E012768
:101DCE008831D1015108CD007E30CE01CD35CE0DFA
:101DDE00CF002330D0004D084F0786004E08503DEF
:101DEE0087005135EB2588310530D10A5102031891
:101DFE000800E92E7B30860023308700811408000E
:101E0E004E082100E50020004D082100E4000800E6
:101E1E004E082100E30020004D082100E2000800DA
:101E2E007B3086002330870055304131010603197F
:101E3E0008007C3086002330870055308100D301A6
:101E4E00A3278831DA30732788315308CD00E63066
:101E5E0084278831B030732788315308CD00BA30CB
:101E6E0084278831C43073278831A3278831CE3038
:101E7E00732788310530D30A5302031C272F86306F
:101E8E00CD000130CE00D8308600233087004D08BB
:101E9E00C03F4E08C13F5630CD000430CE00E43076
:101EAE0086009A278831EA3086009A27BE3086004F
:101EBE004D08C03F4E08C13FC43086000030C03FC1
:101ECE00C13FC63086000030C03FC13FD0308600D3
:101EDE000030C03FC13F0800D001CF35D00DD1003A
:101EEE002330D2004F08510786005008523D87001C
:101EFE004D08C03F4E08C13F0800CE01CD35CE0D76
:101F0E00CF002330D0004D084F0786004E08503DBD
:101F1E0087000030C03FC13FE830CD000330CE0017
:101F2E005308CF0008004D08C03F4E08C13FE830AF
:101F3E00CD000330CE000800E830CD000330CE00D7
:101F4E005308CF0008005508D6005608031908009C
:101F5E005208CE005108CD00530886005408870061
:101F6E000108CF00C3278831D30A0319D40AD10A36
:101F7E000319D20AD603AC2F00308B1B0130D000D0
:101F8E004E083100920020004D08310091002000D3
:101F9E004F0831009300151715158B135530960009
:101FAE00AA30960095149518DA2F15112000500CB2
:101FBE00031C8B1303188B17080021009D01D030D2
:101FCE009E009F019C019B0108002100911211129D
:101FDE00083023009F0090309D0024309E00013079
:101FEE009C00A0309B0020002030B501B401E00021
:021FFE000800D9
:1021EC0000340034003400345834023440340034A9
:1021FC0000340034901221006808690403190800A7
:10220C0069088A0068080A009131080091132100BE
:10221C00660867040319080067088A0066080A0044
:10222C00913108009110210064086504031908001D
:10223C0065088A0064080A00913108009210210098
:10224C00620863040319080063088A0062080A0024
:10225C00913108006400013080010131FE02003030
:10226C00FF3B7F087E04031900343129FE00120065
:10227C001E000130FE020030FF3B7F087E04031974
:10228C0000343D297E1C4B29542920004E08250082
:10229C00920020004D0825009100080071082500CF
:1022AC0092007008910008007E1C5D2966292000B0
:1022BC004E082500960020004D08250095000800CA
:1022CC007108250096007008950008007E1C6F2987
:1022DC00782920004E082600920020004D08260088
:1022EC009100080071082600920070089100080007
:1022FC007E1C81298A2920004E0826009600200089
:10230C004D082600950008007108260096007008FC
:10231C009500080020003C30BF0A3F02031CA42992
:10232C003C30BF01BE0A3E02031CA3291830BE017B
:10233C00BD0A3D020318BD013115B114311408005A
:10234C00203060020318BA293508203E860001307F
:10235C008700010823009A0020002030B50A3502BE
:10236C000318B501E00A08002100111208001F3003
:10237C00B605B701BC010230AA268931872936106F
:10238C00C0269131972CB827083881000130811371
:10239C0001102100E00021005C148931872191316A
:1023AC00122DB8279131103881000230CD29B82771
:1023BC009131183881000330CD29B827913120385C
:1023CC0081000430CD293008892591312200C000CC
:1023DC007B30860023308700C00DC00DC00D010876
:1023EC0040068739400681008117011021005C14DA
:1023FC002330010C2200C000C00C400C0F3921000E
:10240C00E000D329772591317B308600233087007B
:10241C000310811C03140030093D2200C00023303E
:10242C00C00D01084006FD39400681002330011023
:10243C00D12987317C2791310118122D77258F31C5
:10244C0001279131011421005C14893187219131CC
:10245C002200CA014A35D23E860087014A35C83E61
:10246C00FA2691310530CA0A4A020318122D302A75
:10247C00772591313008892591312200D3005335CD
:10248C0058279131012791313C259131360E890C19
:10249C000739031D5F2ACF2791315335D23E860071
:1024AC0087015308C0007E30C926913121005C148D
:1024BC00122D2000BC01122D772591313008892571
:1024CC0091312200D3005335D92791311625913102
:1024DC004C2A772591313008892591312200D3007F
:1024EC00CB0105304B020318872A4B08BF279131CB
:1024FC00622591312C274B358D31EB259131CB0A4F
:10250C00772A2000360E890C0739031D5F2ACF2746
:10251C009131CC0105304C0203185C2A4C08BF27C2
:10252C009131622591312C2791314C08C6007E30B7
:10253C00C701C635C70DC8002330C9004608480777
:10254C0084004708493D67279131CC0A902A7B309B
:10255C00E3279131031DCA2ACF0105304F0203181E
:10256C00C22B4F3558279131012791313C259131A0
:10257C0022004F35D23E860087014F08C0007E30C6
:10258C00C9269131CF0AB32ADA269131013A031DBB
:10259C00E72AD001053050020318C22B50355827BA
:1025AC009131012791313C25913122005035D23E99
:1025BC00860087015008C000B030C9269131D00A7E
:1025CC00D02ADA269131023A031DF62AB42791312A
:1025DC00E42691313C259131BE305E279131C22BDE
:1025EC00DA269131033A031D122BB4279131E426DC
:1025FC0091313C259131D830CD000030E426913119
:10260C003C259131DA30CD000030E42691313C2567
:10261C00913142279131C22BDA269131043A031DB4
:10262C00C22BD2302000CD000030E42691313C2565
:10263C009131D630CD000030E42691313C259131DA
:10264C00D830CD000030E42691313C259131DA3080
:10265C00CD000030E42691313C259131C02B7B30EC
:10266C00E3279131031D502BD10105305102031882
:10267C00C22B5135D9279131162591312200513574
:10268C00D23E860087015108C0007E30C9269131A8
:10269C00D10A3B2BDA269131013A031D732BD2015F
:1026AC00053052020318C22B5235D23E2000CD0009
:1026BC006430CE01CF00C830D001D100D201162534
:1026CC00913122005235D23E860087015208C0005B
:1026DC00B030C9269131D20A562BDA269131023A02
:1026EC00031D822BCB27913108279131162591316F
:1026FC00BE305E279131C22BDA269131033A031D8D
:10270C009E2BCB2791310827913116259131D8304A
:10271C00CD0000300827913116259131DA30CD00EB
:10272C000030082791311625913142279131C22B67
:10273C00DA269131043A031DC22BD2302000CD0091
:10274C0000300827913116259131D630CD0000305C
:10275C000827913116259131D830CD00003008274B
:10276C00913116259131DA30CD00003008279131A6
:10277C0016259131102791317B308600233087004C
:10278C00011081135C2A7D30CD002330CE00CF01A7
:10279C00D001D101D10AD201162591317B30ED2621
:1027AC0091310C2691315C2A7D30CD002330CE0046
:1027BC000430CF00D001D101D10AD2013C25913196
:1027CC007B30ED2691310C2691315C2A0430370296
:1027DC000318FA2B3708383E860087013008892504
:1027EC0091318100B70AFB2BB7013708D000383084
:1027FC0050269131003A031D092C0330AA26913141
:10280C00B72691315F2A04303706031D5F2A8731C2
:10281C008B279131031D302C8A3171229131F52790
:10282C00913138089E26390781008A317122913105
:10283C002200C000013EF52791313A089E263B0745
:10284C00810087317C279131011C062C893187212D
:10285C009131062C873190279131031D452CA727E8
:10286C0091316225913198279131622591318727D9
:10287C009131622591316D279131D830592C8731A6
:10288C0095279131031D062CA72791316225913193
:10289C0098279131622591318727913162259131A9
:1028AC006D279131E430ED27913121005C14272CF8
:1028BC00873186279131031D792C2200CD010530FB
:1028CC004D020318742C4D35D23E860087014D08FD
:1028DC00C000DA30C9269131CD0A652C21005C1478
:1028EC00B7269131122D873181279131031D122D7D
:1028FC002200CE0105304E020318742C4E35D23E08
:10290C00860087014E08C000E630C9269131CE0AF8
:10291C00802C1F30B605B701BC010330AA269131BB
:10292C00122D20003008043A0319EC2B013A03193C
:10293C00EC2B023A03195E2C0F3A0319EC2B013ADB
:10294C000319EC2B033A0319EC2B013A0319EC2B6A
:10295C00073A0319EC2B013A0319EC2B033A031930
:10296C00EC2B013A0319EC2B1B3A0319E929013A18
:10297C000319E929033A0319E929013A0319E92949
:10298C000F3A0319352B013A0319AD2A033A0319EF
:10299C00C92B013A0319DA2B073A0319C929013A51
:1029AC000319D729033A0319DD29013A0319E3293D
:1029BC005F3A0319622A013A03193E2A053A0319B0
:1029CC003E2A013A03193E2A0D3A0319622A013AAA
:1029DC000319622A053A03196F2A013A03196F2A5F
:1029EC001D3A03196F2A013A03196F2A053A031984
:1029FC00622A013A0319622A0D3A03193E2A013A56
:102A0C0003193E2A053A0319082A013A03191F2A09
:102A1C00A23A03198F2C122DC6262000B0010800F3
:102A2C004D0886004E088700403FD300413FD4003C
:102A3C0051084F07D5005208503DD6005408560295
:102A4C00031D2A2D530855024D0886004E08870099
:102A5C000318372D5108810241315208813B7F31D7
:102A6C0008004F08C03F5008C13F08004D088600C1
:102A7C004E088700403FD300413FD4005108530714
:102A8C00D5005208543DD60050085602031D502D57
:102A9C004F0855024D0886004E08870003185D2D1F
:102AAC005108810741315208813D7F3108004F08A0
:102ABC00C03F5008C13F0800D101D2014D1C6A2D06
:102ACC004F08D1075008D23DCF35D00DCE36CD0CA6
:102ADC004D084E04031D642D5208CE005108CD0044
:102AEC00080020007E30CE01392691310330392682
:102AFC009131CE07AB3039269131CE074E083926AD
:102B0C009131EF30392ECE00FF30CD00A82DCD0104
:102B1C000A2ECD01CD0A0A2E0230A62D0330A62D89
:102B2C000430A62D4E08E53EA62D4E08F13EA62DEE
:102B3C004E08F43EA62D4E08FC3EA62D4E08043E33
:102B4C00CD000A2E4E08043A0319A42D013A03199C
:102B5C00A42D0D3A0319A12D013A0319A12D033A05
:102B6C000319A12D013A0319A12D073A03199E2D22
:102B7C00013A03199E2D033A03199E2D013A0319AC
:102B8C009E2D1B3A03199B2D013A03199B2D033AD9
:102B9C0003199B2D013A03199B2D0B3A0319982D00
:102BAC00013A0319982D033A0319982D013A031988
:102BBC00982D5F3A0319962D013A0319962D053A73
:102BCC000319942D013A0319922D0D3A0319942DE2
:102BDC00013A0319922D053A0319942D013A031960
:102BEC00922D1D3A03198D2D013A03198F2D053A9B
:102BFC0003198D2D013A03198F2D0D3A03198D2DC3
:102C0C00013A03198F2D0A2E4D080800CE007E3094
:102C1C00CF0139269131043039269131CF07AE30AE
:102C2C0039269131CF074E0839269131CF074F08FD
:102C3C0039269131EF30392E2000CE007E30CF0175
:102C4C0039269131043039269131CF07AF303926EE
:102C5C009131CF074E0839269131CF074F083926CD
:102C6C009131EF30392ECD00600803193A2E210036
:102C7C00111A452E20004D0823009A004B2E853149
:102C8C00442591314D0885316C2521001116200009
:102C9C004D080800D400D201D1018E2E54088600B4
:102CAC0003308701010203189C2ED201D20A9C2EFC
:102CBC007D2791319E269131FB279131592E7D270D
:102CCC0091319E269131FB27913103189C2E54088B
:102CDC00023E86000630572E7D2791319E2691317B
:102CEC000107D3005408033E86000A308701CD004B
:102CFC005408023E8400850100089E26913101078C
:102D0C00D1001830530203189C2E3C305102592E1E
:102D1C005008013A0319542E033A03195E2E013A56
:102D2C000319652E073A0319722E9C2E52080800BF
:102D3C00CF00CE014D084F18CE07CD35CF364F08FA
:102D4C00031DA02E4E080800CE00CD00CD0DCD0DDC
:102D5C0021005C0820004D0603394D062100DC00E3
:102D6C00C32E1F302000B605B701BC010130AA26C6
:102D7C0089318729210091100800280017150800B7
:102D8C00210091140800C101C035C10DC2002330CF
:102D9C00C3004008420784004108433D8500403F82
:102DAC00803F413F813F08007B3086002330870005
:102DBC00010CC000C00C400C0F390800CE00E830EC
:102DCC00CF000330D000C830D100D20108008600FB
:102DDC002330870042310108053E840098300318E7
:102DEC00013E85000008080084008501403F803FBB
:102DFC00413F813F0800CF000330D000C830D100E4
:102E0C00D2010800CE006430CF00C830D001D10010
:102E1C00D2010800CE3086002330870021005208F2
:102E2C00C03F5308C13FD23086005608C03F5708F8
:102E3C00C13FD43086005808C03F5908C13FD63036
:102E4C0086005A08C03F5B08C13F0800883022004A
:102E5C00C2002330C30020004D0822004207C400EA
:102E6C0020004E082200433DC50040084407860060
:102E7C004108453D87000800C83086002330870094
:102E8C0021005608C03F5708C13FCA308600580879
:102E9C00C03F5908C13FCC3086005A08C03F5B0880
:102EAC00C13F0800D23E2000CD00E830CE01080022
:102EBC0086002330870021005608C03F5708C13FC9
:102ECC0008008500403F803F413F813F08004D088E
:102EDC0022004407C60020004E082200453DC700D2
:102EEC0040084607C8004108473DC9000800540A7D
:102EFC0086000A308701CD00540884008501000843
:102F0C0008004D0822004207C40020004E08220091
:102F1C00433DC50020003A08CD000A30CE01CF0059
:102F2C00D00108004D082200C20020004E082200EB
:102F3C00C30020003908CD003C30CE01CF00D001B9
:102F4C0008003B082200C000C10120003808CD0059
:102F5C005830CE01CF000230D0000800D63020000F
:102F6C00CD0000347B308600233087000108873980
:102F7C000800C000C101C035C10D53082000CD00B0
:102F8C000A30CE01CF00D0010800D6302000CD0091
:102F9C0000347B3086002330870087300110810598
:102FAC00811322000800D23E2000CD00C830CE0193
:102FBC00CF01D001D100D201080086002330870058
:102FCC00010C2200C000C00C400C0F390800860018
:102FDC00233087004808C03F4908C13F08008600DD
:102FEC000A3087012000CD0008000107D3001830FB
:102FFC0053020800073405340334013400340E3412
:08300C001134143417341A3496
:020000040001F9
:08000E00ECDF3DFDFFFFFFFFE9
:00000001FF
