:0400000080312E28F5
:100008007E1480312000911F0D2894318624803180
:100018002C282100911C17282000911C17289431A6
:10002800922480312C282000901E1E2894317A2496
:1000380080312C28921C242894319E2480312C282D
:100048002100111E2C282000111E2C28953108256E
:100058007E100900883105282000B20A32080339C9
:10006800031D3728512020008F3161278031031963
:1000780042288F315C278031031D4328492A2200FA
:1000880020180800A01C4228200C2000CD00CD0C10
:100098004D0C0F3903194228192CB618F328A00162
:1000A800A101080030082F218031FD007D35D23EA6
:1000B800F000E830F101F2000330F300F401F40A33
:1000C800F50120228031360E890C0739031D0800FE
:1000D8007D35D23E860087017D35243E8E31B2269D
:1000E800080030082F218031FD007D35D23EF00018
:1000F800F101F201F301F401F40AF501FA2180316A
:10010800672897228031031D0800B61030082F2178
:100118008031FD00D230F3007D08BE2180310130EE
:10012800B22121005C14080097228031031D0800C9
:10013800B61036081F394038B600B7010130B22171
:10014800080097228031031D0800B61036081F39B1
:100158006038B600B7010130B2210800972280311B
:10016800031D0800B61036081F398038B600FB0199
:100178007B35583E8600013087007B352C23803143
:100188000530FB0A7B02031CBC280130B2210800A1
:1001980097228031031D0800B61036081F39A03891
:1001A800B600FC017C35643E8600013087007C3552
:1001B8002C2380310530FC0A7C02031CD628013030
:1001C800B221080097228031031D0800B6103608B6
:1001D8001F392038B600B7010130B22108003008B5
:1001E800063A0319E628163A03199828013A03191A
:1001F800B228033A0319A528013A0319CC28533A1F
:1002080003197528013A03195628053A031956287F
:10021800013A031956280D3A03197528013A0319AA
:100228007528053A03198528013A031985281D3AC6
:1002380003198528013A03198528053A03197528F1
:10024800013A031975280D3A03195628013A03197A
:1002580056282E290800F100FF30F0004E29F00141
:10026800B029F001F00AB02902304C2903304C299A
:1002780004304C297108E53E4C297108F13E4C299F
:100288007108F43E4C297108FC3E4C297108043E63
:10029800F000B0297108043A03194A29013A0319F0
:1002A8004A290D3A03194729013A03194729033AFC
:1002B80003194729013A03194729073A0319442919
:1002C800013A03194429033A03194429013A031945
:1002D80044291B3A03194129013A03194129033AD0
:1002E80003194129013A031941290B3A03193E29F7
:1002F800013A03193E29033A03193E29013A031921
:100308003E295F3A03193C29013A03193C29053A69
:1003180003193A29013A031938290D3A03193A29D8
:10032800013A03193829053A03193A29013A0319F8
:1003380038291D3A03193329013A03193529053A91
:1003480003193329013A031935290D3A03193329B9
:10035800013A03193529B02970080800F100F000A6
:10036800F00DF00D21005C08700603397006DC0002
:1003780046220800F7000430770203180800FA0143
:10038800730886008701403FF800413FF9000330B9
:10039800F30AF30A7902E930031978020318E82905
:1003A8007A08F4002E30F4357407F5000A30F000AE
:1003B8007708EE2180317507F60086000130870046
:1003C8007808C03F7908C13F0530FA0A7A02031855
:1003D8000800C429F100F20170087118F207F0351D
:1003E800F1367108031DF0297208080070088600AC
:1003F80071088700403FF600413FF7007408720714
:10040800F8007508733DF90077087902031D0E2A74
:1004180076087802700886007108870003181B2A7E
:100428007408810241317508813B7F3108007208E8
:10043800C03F7308C13F0800700886007108870034
:10044800403FF600413FF70074087607F80075084A
:10045800773DF90073087902031D342A720878027F
:1004680070088600710887000318412A74088107FC
:1004780041317508813D7F3108007208C03F73081B
:10048800C13F0800280017150800FA017A35D23E46
:100498009E228031C83E852280310318592A7A3538
:1004A800FD2580310318810A6E2A7A35C83E9E22BE
:1004B8008031D23E852280310318662A7A35E825B4
:1004C80080316E2A7A35D23E860087017A35C83E59
:1004D8007E2280317A35A6227A35BE3E8600413F9B
:1004E8008A00403F0A0005308231FA0A7A0203186E
:1004F80008004A2A84008501403F803F413F813FF0
:1005080008008600403FF600413FF7007608013EAC
:10051800F8000030773DF90075087902031D0800DE
:10052800740878020800A00A0319A10A02302106FB
:100538002004080086008701403FF400413FF50091
:100548007A350800C83E86008701403FF000413FE9
:10055800F10008008D315E25803134238C31D92497
:1005680080314F08DA004E08D9008D315E25803180
:100578002000D400013E860087010108D90703182E
:10058800DA0A220057082000D60022005608200068
:10059800D500220063082000D8002200620820004D
:1005A800D70058085606031DDB2A57085506031DB1
:1005B800F82ADD015D35643E8600013087005D352F
:1005C8002C235D35643E86005D35C83E84008E313F
:1005D800DD268031DD0A5D02031CDE2A2100DD01F3
:1005E800DE01DF018A31502A56085A06031DFE2A09
:1005F80055085906031D142BDB015B35583E860050
:10060800013087005B352C2380310530DB0A5B0223
:10061800031C012B01302100DD00DE01DF01080091
:1006280058085A06031D1A2B57085906031D0800B7
:10063800DC015C35643E8600013087005C352C2384
:1006480080310530DC0A5C02031C1D2B02300F2BA5
:10065800D23E84008501403F803F413F813F0800F2
:100668008600870101082000CE003C30CF01D00071
:10067800D101080021005D0B502B00305F02FA30D9
:1006880003195E020318502BB5230430D200D3019E
:100698008D31382580317E2B02305D06031D632B9A
:1006A80003305F02E83003195E020318632BB52399
:1006B800D201D20AD3018D31382580317E2BDD015C
:1006C800DE01DF0153084902031D6C2B5208480262
:1006D8000318722BC80A0319C90A7E2B490853024A
:1006E800031D782B4808520203187E2B0130C802DC
:1006F8000030C93B2100DE0A0319DF0A5E18A72B68
:100708002000DC01DC0A5C35D23EBF238031C83EC4
:10071800A92380310318962B5C35FD2580310318F9
:10072800810AA22B5C35C83EBF238031D23EA92363
:1007380080310318A22B5C35E82580310530DC0AAE
:100748005C02031C872B8A31502A8600403FDA005E
:10075800413FDB0059085B02031D080058085A0294
:100768000800C8302000CE000030CF00E830D000AC
:100778000330D100080086008701403FD800413F80
:10078800D9005C350800F22580310630F101F00708
:100798000318F10A7708F3007608F200C2258031C1
:1007A80071082000CB007008CA00B4308600003001
:1007B800870040308400003085000A30F8001600B9
:1007C8001A00F80BE32B4A08C6074B08C73D03304D
:1007D8004702E93003194602031CF62BE830C6002D
:1007E8000330C700CC014C35403E54268031C83E0A
:1007F800102680310318062C4C35FD25803103184E
:10080800810A122C4C35C83E54268031403E1026B1
:1008180080310318122C4C35E82580310530CC0A7C
:100828004C02031CF72BD725080020302100610259
:10083800031C322C20306106031D282C220064265C
:10084800803170248031322C40306102031C322CFC
:1008580040306106031D332C5E248031E10A2200FA
:10086800A01F080064268031053A0319452C033A75
:1008780003194B2C013A0319512C0F3A0319572C21
:100888005D2C20002B08F7002A08F600C72B200053
:100898002B08F7002A08F6009F2C20002B08F700E9
:1008A8002A08F600522D20002B08F7002A08F60027
:1008B800F12C08007E30F1018B24803103308B2429
:1008C8008031F10611308B248031F10671088B24B8
:1008D8008031EF308B240800F1007E30F2018B2448
:1008E800803105308B248031F20641308B248031F1
:1008F800F20600308B248031F20671088B24803197
:10090800F20672088B248031EF308B240800F00047
:1009180020005E0803198C2C2100111A972C7008EE
:1009280023009A009B2C4C26803170083426210025
:10093800111670080800F22580310530F101F00722
:100948000318F10A7708F3007608F200C22580310F
:1009580071082000CB007008CA00AA308600003059
:10096800870040308400003085000A30F800160007
:100978001A00F80BBB2C47084B02031DC52C460870
:100988004A020318CC2C4A08C6024B08C73BCE2C97
:10099800C601C701CC014C35403E44268031C83ED3
:1009A800282680310318DE2C4C35FD2580310318AC
:1009B800810AEA2C4C35C83E44268031403E282620
:1009C80080310318EA2C4C35E82580310530CC0AF3
:1009D8004C02031CCF2CD7250800F22580310530A6
:1009E800F101F0070318F10A7708F3007608F2001E
:1009F800C225803171082000CB007008CA00D230AF
:100A080086000130870040308400003085000A30BD
:100A1800F80016001A00F80B0D2D45084B02031DAF
:100A2800172D44084A0203181E2D4A08C4024B0811
:100A3800C53B202DC401C5014A08C6074B08C73D60
:100A480003304702E93003194602031C2F2DE83012
:100A5800C6000330C700CC014C35403E5C268031CF
:100A6800C83E1C26803103183F2D4C35FD258031AA
:100A78000318810A4B2D4C35C83E5C268031403E18
:100A88001C26803103184B2D4C35E8258031053064
:100A9800CC0A4C02031C302DD7250800F2258031E2
:100AA8001030F101F0070318F10A7708F30076080F
:100AB800F200C225803171082000CB007008CA00FE
:100AC800A030860000308700403084000030850068
:100AD8000A30F80016001A00F80B6E2D4A08C407F1
:100AE8004B08C53D03304502E93003194402031C95
:100AF800812DE830C4000330C50047084B02031DB0
:100B0800872D46084A0203188E2D4A08C6024B084C
:100B1800C73B902DC601C7014A08C8074B08C93D05
:100B280003304902E93003194802031C9F2DE830BD
:100B3800C8000330C900CC014C35403E3C2680310A
:100B4800C83E042680310318AF2D4C35FD25803171
:100B58000318810ABB2D4C35C83E3C268031403EE7
:100B6800042680310318BB2D4C35E825803105302B
:100B7800CC0A4C02031CA02DD7250800F401F5016E
:100B8800701CCA2D7208F4077308F53DF235F30D91
:100B9800F136F00C70087104031DC42D7508F100BE
:100BA8007408F0000800F4017435A6227435BE3EBE
:100BB8008600413F8A00403F0A0005308531F40A2B
:100BC800740203180800D82DC83E8600013087013A
:100BD800810200304131813B7F3108002200230827
:100BE800003E840098300318013E85000008F0009C
:100BF8000800C83E8600013087018107413108009E
:100C08008600403FFA00413FFB0079087B02031D44
:100C1800080078087A0208008600403FFA00413F41
:100C2800FB0079087B02031D080078087A02080097
:100C38008600403FFA00413FFB0079087B02031D14
:100C4800080078087A0208008600403FFA00413F11
:100C5800FB0079087B02031D080078087A02080067
:100C680081002030B40A34020318B401DE030800FE
:100C780086008701403FF800413FF9004C350800E5
:100C880086008701403FF800413FF9004C350800D5
:100C9800111220003408A03E8600013087000800A9
:100CA80086008701403FF800413FF9004C350800B5
:100CB80086008701403FF800413FF9004C350800A5
:100CC800200CFC00FC0C7C0C0F3908002D27863109
:100CD80010302000D0007030D1002030D2004E30CB
:100CE800D30008278631DB015B35243E5E27863139
:100CF80003195502031C852E6E278631243E68276A
:100D080086315B35583E5E27863103195502031C30
:100D1800922E6E278631583E682786315B35643EB1
:100D28005E27863103195502031C9E2E6E278631D5
:100D3800643E6827DA015B08D5002E30D5355507A3
:100D4800D6000A30CE005A088D310525863156075F
:100D5800D700860001308700403FD800413FD900C6
:100D680003305902E93003195802031CD42EE83025
:100D7800D5000330D6005B08D7002E30D73557078B
:100D8800D8000A30CE005A088D310525863158071B
:100D9800D9008600013087005508C03F5608C13F7A
:100DA8000430DA0A5A02031C9F2E2200200C20006D
:100DB800D500D50C550C0F39D60009305602031C46
:100DC800E82E87302200A005053022005702A03007
:100DD80003195602031CF22ED601D701053063020F
:100DE800A03003196202031CFB2EE201E301053067
:100DF8002302031C012F0430A30020000530DB0A66
:100E08005B0203180800782E5308D400540803190D
:100E1800080052088600013087005108CF005008AA
:100E2800CE001F27863181002000D00A0319D10A7D
:100E3800D20AD4030A2F4F083100920020004E082E
:100E48003100910015171514000000003100130837
:100E580008005530220021062204031908005530E5
:100E6800A100A2012000D001E830CE000330CF005D
:100E78005035583E8600013087004E08C03F4F0865
:100E8800C13F5035643E86000030C03FC13F053049
:100E9800D00A5002031C382F01302200D7008630B8
:100EA800D6000430E3005630E2000330E900E830B1
:100EB800E8000800860001308700403FD500413F28
:100EC800D60003305602E93486005508C03F56085C
:100ED800C13F0800E830D5000330D6005B35080074
:100EE8005C0C890C3F390319972F2000B30A33088B
:100EF8000739031D08002100DC1C932FA4272100BB
:100F08005C0CF000700C3F39F000F003F00DF00DB0
:100F18005C08700603397006DC00DC1008009B27AB
:100F28002100DC140800AD272000B30108002500CB
:100F3800931397132600931397132C009913080003
:100F48002500931797172600931797172C009917C2
:100F58000800280017110800C8340034C8340034C9
:100F68009034013440340134903401340034003476
:100F780000340034E8340334C83400340034003416
:100F8800F4340134F4340134F4340134C834003412
:100F9800F4340134D8340734BC341434E034143411
:100FA800CE341434AA3414347E1CDB2FED2F2000E9
:100FB8004F08D1004E08D0000630D035D10D890B2E
:100FC800E12F50082C009700200051082C009800B1
:100FD80008007108F3007008F2000630F235F30DCE
:100FE800890BF22F72082C009700730898000800EC
:10100A00B030840087308500A03086000030870029
:10101A00283094316A2488317030840094308500F5
:10102A00D2308600013087000A3094316A24883130
:10103A0020308400003085002030943164248831C7
:10104A00C8308400003085001A3094316424883115
:10105A0020308400013085004E3094316424883178
:10106A00A030840001308500203094316424883116
:10107A007E102000402895311F25883175278B174F
:10108A000B1786316A268831F9208831B0268831D3
:10109A0050268831BE27883164002200201CA01CFB
:1010AA005A28A01F5A28882088314C26883153266E
:1010BA008831A2268831B0278831B5278831003A8D
:1010CA0003196D282200201C6D288231AE22883136
:1010DA00B9278831003A031951282200201C852893
:1010EA002000360C890C0739043A03198528360C76
:1010FA00890C0739053A0319852883313E2388313B
:10110A009626883151281230D82088314F08D900C4
:10111A004E08D80024082504031D9628662788311E
:10112A00A82859082902031D9C28580828020318D0
:10113A00A0286627883127085902031DA6282608F1
:10114A0058020318AC285908A7005808A600A40A90
:10115A000319A50A01302502003003192402031CD1
:10116A000800A401A5018B132B08CF002A08CE0082
:10117A000F30D000D101D92426084E02D400270806
:10118A004F3BD50028085407D6002908553DD700FB
:10119A00560E0F39AA00570EF039AA04570E0F3906
:1011AA00AB008B1708002000D100D000D00DD00D65
:1011BA0021001D08200050060339500621009D0019
:1011CA001D140530890BE728000021009D1420001A
:1011DA00111FEC28111321001C082000CF00210048
:1011EA001B082000CE0008000D302000D500FD307D
:1011FA00D400A230890BFF28D40BFF28D50BFF2877
:10120A0000006400C724883102302000D5004D3028
:10121A00D4007430890B0F29D40B0F29D50B0F2951
:10122A000000220020191C292000D6012029FB26B3
:10123A0088312000D600D70156081622883102309C
:10124A002000D5004D30D4007430890B2A29D40BE4
:10125A002A29D50B2A2900000230FF2188310230C1
:10126A002000D5004D30D4007430890B3A29D40BB4
:10127A003A29D50B3A2900005E2583313423883177
:10128A00D92488314F08DA004E08D9005E25883102
:10129A002000D400013E860087010108D9070318FF
:1012AA00DA0A22002018A329A0185C292D2A3C2733
:1012BA0088310319A12922003C2788312100E00046
:1012CA000130E100912956278831CB00E830CA0065
:1012DA000330CD00E830CC000330CF00E830CE0038
:1012EA000330D100E830D000502A2100C801C901DA
:1012FA00CA01CB010330CD00E830CC00CE01CF01CA
:10130A00D001D10179292100C801C9018E295627A6
:10131A008831CA01CB016D2922003C278831013A64
:10132A0003196829033A03197A29013A0319882902
:10133A00073A03198C29A2293D2208002000D80166
:10134A00220063085702031DAC29620856020318DB
:10135A00B829570820005A02031DB5296B2788317E
:10136A00031CD729C92957086302031DBE29560839
:10137A0062020318D729570820005A02031DC729F9
:10138A006B2788310318D5292200630820005A02E6
:10139A00031DD32922006208200059020318D72905
:1013AA00D801D80A200058080319ED29DB015B355A
:1013BA00583E112783312C2388315B35583E162736
:1013CA008831DD268831DB0A5B0203187929DC299A
:1013DA00DB015B35643E112783312C2388315B3571
:1013EA00643E16278831DD268831DB0A5B02031842
:1013FA007929EE292000CF007E30D001EE248831F1
:10140A000430EE248831D0063330EE248831D006F9
:10141A004F08EE248831D0065008EE248831EF3088
:10142A00EE2C2000CF007E30D001EE24883104302B
:10143A00EE248831D0063130EE248831D0064F08A8
:10144A00EE248831D0065008EE248831EF30EE2C95
:10145A00A0102000CE014E35D23E86000030870112
:10146A00C03FC13F0530CE0A4E0203180800302A99
:10147A002200A0142000CE014E35243E8600013001
:10148A0087004E3583312C2388310530CE0A4E022F
:10149A0003180800412A2000D2015235C83E8600AE
:1014AA008701403FCE00413FCF005235BE3E860005
:1014BA00413F8A00403F0A008A3120000530D20AA3
:1014CA00520203180800522A36106C258831482C1B
:1014DA00C72488312200200887390838A000A013C1
:1014EA00201001302100E00021005C14F92088312D
:1014FA00C32CC72488312200200887391038A0005D
:10150A00A01320100230772AC7248831220020082D
:10151A0087391838A000A01320100330772AC7246F
:10152A0088312200200887392038A000A013201013
:10153A000430772AC724883130087225883123007D
:10154A00C000C00DC00DC00D2200200823004006B7
:10155A00873940062200A000A017201021005C1441
:10156A002200200C2300C000C00C400C0F392100BF
:10157A00E0007B2AC724883103102200A01C031430
:10158A00031CCA2A2200A014CC2A2200A010201070
:10159A00792AC72488312200A014201421005C145F
:1015AA00F9202300CA014A35D23E860087014A350E
:1015BA00C83E82317E2288310530CA0A4A0203189F
:1015CA00C32CD82AC72488313008722588312300D1
:1015DA00D10051351B27883138258831360E890CC0
:1015EA000739031D062B4327883123005135D23E84
:1015FA00860087015135243EB226883121005C14C9
:10160A00C32CBC01C32CC724883130087225883109
:10161A002300D10051353227883112258831F32A27
:10162A00C72488313008722588312300D100CB01C4
:10163A0005304B0203182D2B4B0827278831052527
:10164A00883149274B3583312C238831CB0A1D2B0E
:10165A002000360E890C0739031D062B43278831D3
:10166A002300CC0105304C020318032B4C08272712
:10167A00883105258831492788314C35243EB226E0
:10168A008831CC0A372BC72488312300CF01053093
:10169A004F020318782B4F351B278831382588319C
:1016AA0023004F35D23E860087014F35243EB226AD
:1016BA008831CF0A4C2BC72488312300D00105304A
:1016CA0050020318782B5035322788311225883179
:1016DA0023005035D23E860087015035243EB2267B
:1016EA008831D00A642B43278831032B2330CE005C
:1016FA000130CF00D001D101D201D20AD301122583
:10170A0088312200FB26883116228831032B2330A8
:10171A00CE000130CF000430D000D101D201D20A6C
:10172A00D301382588312200FB26883116228831D8
:10173A00032B043037020318AC2B3708383E8600D7
:10174A0087013008722588318100B70AAD2BB701AD
:10175A003708D1003830FE258831003A031DBB2BEB
:10176A0003305F258831F5258831062B043037068A
:10177A00031D062B9731F1278831031DDF2B5E25C8
:10178A008831502788313808052588313907810082
:10179A005E2588312300C000013E502788313A086F
:1017AA00052588313B0781002200201CB82BF9202F
:1017BA008831B82B9731F6278831031DF82B042777
:1017CA008831D9248831EC268831D9248831CC262D
:1017DA008831D9248831BA268831D60023004908AD
:1017EA002200D700102C9731FB278831031DB82B14
:1017FA0004278831D9248831EC268831D9248831C4
:10180A00CC268831D9248831BA268831E2002300CF
:10181A0049082200E30021005C14D92B6127883192
:10182A00031D2C2C2300CD0105304D020318272C53
:10183A004D35D23E860087014D35583EB226883155
:10184A00CD0A192C21005C14F5258831C32C5C279C
:10185A008831031DC32C2300CE0105304E02031824
:10186A00272C4E35D23E860087014E35643EB2267D
:10187A008831CE0A322C1F30B605B701BC010330BD
:10188A005F258831C32C20003008043A03199E2BA7
:10189A00013A03199E2B023A0319132C0F3A031922
:1018AA009E2B013A03199E2B033A03199E2B013AE8
:1018BA0003199E2B073A03199E2B013A03199E2BF3
:1018CA00033A03199E2B013A03199E2B1B3A03195B
:1018DA009F2A013A03199F2A033A03199F2A013AB8
:1018EA0003199F2A0F3A0319602B013A0319482B4F
:1018FA00033A03197B2B013A03198C2B073A031974
:10190A006D2A013A03197E2A033A0319892A013AF0
:10191A000319942A5F3A0319082B013A0319E72A93
:10192A00053A0319E72A013A0319E72A0D3A031976
:10193A00082B013A0319082B053A0319152B013A0A
:10194A000319152B1D3A0319152B013A0319152BE7
:10195A00053A0319082B013A0319082B0D3A031902
:10196A00E72A013A0319E72A053A0319BF2A013A75
:10197A000319CE2AA23A0319402CC32C912620001F
:10198A00B001080020007E30CF01EE2488310330F8
:10199A00EE248831CF061E30EE248831CF064F0858
:1019AA00EE248831EF30EE2CD201D3014E1CE12C0B
:1019BA005008D2075108D33DD035D10DCF36CE0CC1
:1019CA004E084F04031DDB2C5308CF005208CE00EB
:1019DA000800CE005E080319EF2C2100111AFA2C18
:1019EA0020004E0823009A00002D86314C268831AB
:1019FA004E08863134262100111620004E080800B0
:101A0A002000D000CF014E085018CF07CE35D0366F
:101A1A005008031D082D4F0808004E0886004F087D
:101A2A008700403FD400413FD50052085007D600F6
:101A3A005308513DD70055085702031D262D540857
:101A4A0056024E0886004F0887000318332D5208A5
:101A5A00810241315308813B7F3108005008C03F61
:101A6A005108C13F08004E0886004F088700403FD2
:101A7A00D400413FD50052085407D6005308553DBB
:101A8A00D70051085702031D4C2D500856024E0824
:101A9A0086004F0887000318592D520881074131E3
:101AAA005308813D7F3108005008C03F5108C13FAB
:101ABA0008003D34CF00CE00CE0DCE0D21005C08CB
:101ACA0020004E0603394E062100DC006F2D21004E
:101ADA0091100800280017150800CF00FF30CE002B
:101AEA00912DCE01F32DCE01CE0AF32D02308F2D8A
:101AFA0003308F2D04308F2D4F08E53E8F2D4F0870
:101B0A00F13E8F2D4F08F43E8F2D4F08FC3E8F2D4E
:101B1A004F08043ECE00F32D4F08043A03198D2DC9
:101B2A00013A03198D2D0D3A03198A2D013A031929
:101B3A008A2D033A03198A2D013A03198A2D073A85
:101B4A000319872D013A0319872D033A0319872DA3
:101B5A00013A0319872D1B3A0319842D013A0319F7
:101B6A00842D033A0319842D013A0319842D0B3A63
:101B7A000319812D013A0319812D033A0319812D85
:101B8A00013A0319812D5F3A03197F2D013A03198E
:101B9A007F2D053A03197D2D013A03197B2D0D3A44
:101BAA0003197D2D013A03197B2D053A03197D2D61
:101BBA00013A03197B2D1D3A0319762D013A0319AF
:101BCA00782D053A0319762D013A0319782D0D3A25
:101BDA000319762D013A0319782DF32D4E080800C2
:101BEA001F302000B605B701BC0101305F258831DE
:101BFA00F928D500D301D2013C2E550886000330BE
:101C0A008701010203184A2ED301D30A4A2EE2267B
:101C1A0088310525883170278831072EE2268831D8
:101C2A00052588317027883103184A2E5508023E47
:101C3A0086000630052EE2268831052588310107FF
:101C4A00D4005508033E86000A308701CE005508A5
:101C5A00023E840085010008052588310107D2006B
:101C6A001830540203184A2E3C305202072E5108EB
:101C7A00013A0319022E033A03190C2E013A0319E9
:101C8A00132E073A0319202E4A2E53080800200063
:101C9A00361C0800692A20001B140800111C0800C1
:101CAA0011109426883199019A01E330B605B61CC1
:101CBA00612E8D2E36148E2E3008403A03195F2E6F
:101CCA00013A03195F2E053A03195F2E013A0319E7
:101CDA005F2E0D3A03195F2E013A03195F2E053A5A
:101CEA0003195F2E013A03195F2E1D3A03195F2E5D
:101CFA00013A03195F2E053A03195F2E013A0319B7
:101D0A005F2E0D3A03195F2E013A03195F2E8E2EAC
:101D1A00B61091268831502E2100911408001B100C
:101D2A0008002000360E890C073903190800BC0A7E
:101D3A000B303C02031C0800C02F21005C1C080069
:101D4A005C1010302000D2007030D3002030D40054
:101D5A004E30D500C82F971708008400013085003F
:101D6A00403F803F413F813F08004E08230044071F
:101D7A00C60020004F082300453DC700400846071B
:101D8A00C8004108473DC9004808220008004E081B
:101D9A0023004207C40020004F082300433DC5002A
:101DAA0020003A08CE000A30CF01D000D101080045
:101DBA00403F803F413F813F0534550A86000A3043
:101DCA008701CE00550884008501000808004E08E6
:101DDA002300C20020004F082300C3002000390856
:101DEA00CE003C30CF01D000D10108002308053EC7
:101DFA00840098300318013E8500000808003B085B
:101E0A002300C000C10120003808CE005830CF019D
:101E1A00D0000230D10008008600013087005B350F
:101E2A00080086005B35C83E84000800D23E2000C8
:101E3A00CE00E830CF01D0000330D100C830D20044
:101E4A00D3010800C0002E30C0354007C1000A3057
:101E5A002000CE00230051080800D23E2000CE0008
:101E6A00C830CF01D001D101D200D3010800200C23
:101E7A002000D400D40C540C0F3908002200201082
:101E8A008730A005A013080023004107C20086007E
:101E9A0001308700080086000A3087012000CE0042
:101EAA000800E8302100C8000330C9000800360ED7
:101EBA00890C0739053A0800360E890C0739043AA5
:101ECA0008005908A9005808A80008002200560866
:101EDA002000590208000107D400183054020800F3
:101EEA0010302000CE001630CF0098278831F2300B
:101EFA002000CE001430CF009027883130302000E7
:101F0A00CE000030CF00A027883174302000CE00E8
:101F1A000730CF00A82F4F082100E90020004E0803
:101F2A002100E80008004F082100E70020004E08C1
:101F3A002100E60008004F082100E50020004E08B5
:101F4A002100E40008004F082100E30020004E08A9
:101F5A002100E20008002000311D00343111013453
:101F6A00B11C0034B11001342000311C003431108E
:101F7A0001341F1508001F30B605B701BC01023035
:101F8A005F258831F9285508D60056080319080034
:101F9A005308CF005208CE0054088600013087004B
:101FAA000108D000DF278831D40AD20A0319D30ADC
:101FBA00D603CA2F00308B1B0130D1004F083100E5
:101FCA00920020004E083100910020005008310094
:101FDA009300151715158B1355309600AA309600E5
:101FEA0095149518F62F15112000510C031C8B130C
:061FFA0003188B1708001C
:1028C800640080010131890B652C0034FE00120080
:1028D8001E00FE0B6B2C003400340034003400342E
:1028E800583402344034003400340034901221004B
:1028F800680869040319080069088A0068080A005A
:102908009431080091132100660867040319080030
:1029180067088A0066080A009431080091102100AF
:10292800640865040319080065088A0064080A0039
:10293800943108009210210062086304031908000A
:1029480063088A0062080A00943108007E1CAD2CD6
:10295800B62C20004F082500920020004E082500C4
:102968009100080071082500920070089100080085
:102978007E1CBF2CC82C20004F0825009600200084
:102988004E0825009500080071082500960070087B
:10299800950008007E1CD12CDA2C20004F08260058
:1029A800920020004E0826009100080071082600B9
:1029B80092007008910008007E1CE32CEC2C20008B
:1029C8004F082600960020004E08260095000800B3
:1029D80071082600960070089500080020003C3019
:1029E800BF0A3F02031C062D3C30BF01BE0A3E024F
:1029F800031C052D1830BE01BD0A3D020318BD0198
:102A08003115B1143114080020305E0203181C2D52
:102A18003508A03E860001308700010823009A008F
:102A280020002030B50A35020318B501DE0A080077
:102A38002100111208004225953138259531BA2513
:102A48009531C5259531D4259531DE2595318F25CC
:102A58009531952595319E259531A9259531B42532
:102A68009531F1259531E92D6030320099009B01AF
:102A780048309D0006309F009E01080022008C010E
:102A880080308D008E01303021008C0060308D0048
:102A980005308E00043023008E008D018C016030DB
:102AA80024008D008C0101308E0025008C018D01E1
:102AB8008E0100308B1B01302000CE008B130A26BC
:102AC80095310F103D002508E0390C38A500230882
:102AD800E0390D38A3001208E0390E3892002108B9
:102AE800E0390F38A1002708E0390238A7003C0078
:102AF8001308E039103893003D001F08E0391438F6
:102B08009F000A2695310F1420004E1C8D2D8B171F
:102B180008008B1308008F30250093009101920163
:102B2800052E8F309700950196011F08F339043858
:102B38009F0008008F302600930091019201250024
:102B48001F08CF3910389F0008008F3026009700E3
:102B58009501960125001F083F3940389F0008005D
:102B680080302C00990097019801052E20009701CC
:102B7800D7309800FF3096009501901221009016EA
:102B88000800343020009B00C8309C0099019A014D
:102B98001110210011102000911321009117080035
:102BA800783020009F00F9309E009D01911021008F
:102BB800911408007B3028009700F93096009501A1
:102BC8002000921021009214080021009D01D030AD
:102BD8009E009F019C019B01080021009112111287
:102BE800083023009F0090309D0024309E00013063
:102BF8009C00A0309B0020002030B501B401DE000D
:102C080008001F08FC3901389F00080055303C00B7
:102C18008F00AA308F000800F70120001A08FB0077
:102C28001908FA0099019A01CE2E07307B02D1309B
:102C380003197A02031C080009307B02C430031907
:102C48007A02031808003608E3390438B600A201EE
:102C5800A301AF01E827080000307B02DD3003192B
:102C68007A02031C402E01307B02543003197A0289
:102C78000318402EAF0A5E2E02307B02D1300319B2
:102C88007A02031C5C2E03307B02C03003197A02DF
:102C980003185C2E0130F300F4012F0A552EF3358A
:102CA800F40D890B532E7308A2047408A3043E2E56
:102CB800E330B60510302F02031C0800360C890CCF
:102CC8000739013A031D712E230A2204031DAF2E72
:102CD8003608E3390838B600B12E360C890C0739A6
:102CE800023A031DB12EE527963120002208F9008B
:102CF8002308F700770F822E0130832E0030F3006F
:102D0800F4017906F5007408F60075040319AF2E6E
:102D18007908DE269631F800780F942EFF30972E2A
:102D2800780B9B2E79082000B0003614AF2E0330A4
:102D380078060319A32E02307806031DAC2E7908F5
:102D48002000B0003608E3390C38B600AE01B12EC9
:102D5800E3302000B02EE330B605A201A301AF0195
:102D6800080003307B02E93003197A02031C0800CB
:102D780004307B02E23003197A0203180800043099
:102D88002E020318C92EAE0A0800B6140800E33054
:102D9800B6050800360C890C07390319192E013AB3
:102DA8000319302E033A0319302E013A0319B52EB0
:102DB800CB2E0800F200F101360E890C0739031DED
:102DC800792F5D3072060319ED2E5C307206031DF3
:102DD800F02EF101F10AE32F103072060319042FC7
:102DE800113072060319042F123072060319042FCA
:102DF800133072060319042F06307206031D062FBE
:102E08000330862F2200A018282FE32FED2E20183C
:102E1800ED2EEB2796310319ED2EE32F2018E32F23
:102E2800EB279631031DED2EE32F2018ED2EEB270F
:102E38009631031DED2E0230862F20181F2FEB2709
:102E4800963103191F2FE32F7208143A0319ED2E38
:102E5800013A0319ED2E033A0319ED2E013A03192D
:102E6800ED2E0F3A03190B2F013A03190B2F033AD2
:102E78000319122F013A0319122F073A03190A2FBF
:102E8800013A0319ED2E033A0319ED2E013A0319FD
:102E9800ED2E5F3A0319212F013A0319212F053A24
:102EA8000319212F013A0319212F0D3A0319212F54
:102EB800013A0319212F053A0319192F013A031969
:102EC800192F1D3A0319192F013A0319192F053A19
:102ED8000319212F013A0319212F0D3A0319212F24
:102EE800013A0319212F782FE32F8F31612796316B
:102EF8000319882F8F315C2796310319882FB72F34
:102F08001F2FFF30F100E32F7208073A0319ED2E47
:102F1800473A03191F2F013A03191F2F053A0319BE
:102F28001F2F013A03191F2F0D3A03191F2F013ABA
:102F380003191F2F053A0319ED2E013A0319ED2E37
:102F48001D3A03190A2F013A0319ED2E053A031900
:102F58001F2F013A03191F2F0D3A0319842F013A25
:102F68000319842F852FF12796310319C32FF627CC
:102F780096310319C32FFB279631031DE32F7208DF
:102F8800043A0319ED2E013A0319ED2E0D3A0319EF
:102F9800ED2E013A0319ED2E033A0319ED2E013AED
:102FA8000319ED2E073A03190A2F013A0319ED2EDA
:102FB800033A0319ED2E013A0319ED2E852F7108F6
:102FC8000800210091140800210091100800200C2D
:102FD800F000F00C700C0F390800360E890C073918
:102FE800013A0800360E890C0739023A0800360EF5
:102FF800890C0739033A08000734053403340134CF
:0C30080000340E341134143417341A3420
:020000040001F9
:08000E00ECDF3DFDFFFFFFFFE9
:00000001FF
