:0400000080312E28F5
:100008007E1480312000911F0D2890317A20803194
:100018002C282100911C17282000911C17289031AA
:10002800862080312C282000901E1E2890316E20BA
:1000380080312C28921C24289031922080312C2841
:100048002100111E2C282000111E2C28913102217C
:100058007E10090088312D282000D50A550803395B
:10006800031D3828922280312000A82780310319E7
:100078004128A3278031031D422869289E27803103
:1000880001180800811C41287B3086002330412557
:100098008031031941287B30860023304125803187
:1000A800013A0319662839258031023A031966286E
:1000B80039258031033A0319662839258031043AF5
:1000C800031D6828692080319F28FA017A35D43EBB
:1000D80080258031CA3EE0248031031879287A359A
:1000E800F92480310318810A8F287A35CA3E802581
:1000F8008031D43EE0248031031886287A35C8241C
:1001080080318F287A35D43E860087017A35CA3EF9
:100118009631AB2680317A3578257A35BE3E860011
:10012800413F8A00403F0A0005308031FA0A7A02CE
:10013800031808006A28203021006302031CB9282C
:1001480020306306031DB2287B30860023308700E9
:1001580088258031303EE8208031B928403063025C
:10016800031CB928403063060319E30A7B30860074
:1001780023308700811F080088258031053A03193C
:10018800CF28033A0319D528013A0319DB280F3A77
:100198000319E128E72820005008F7004F08F60067
:1001A8006F2920005008F7004F08F6001D2920008D
:1001B8005008F7004F08F600222A20005008F700E0
:1001C8004F08F600C1290800F1007E30F2010B212A
:1001D800803107300B218031F207A1300B218031AB
:1001E800F20730300B218031F20730300B2180319B
:1001F800F20730300B218031F20771080B21803172
:10020800F20772080B218031EF300B210800F00053
:100218006C0803190C29111A1529700823009A0073
:1002280019296025803170084725210011167008AA
:1002380008007B30D22480310530F101F007031823
:10024800F10A7708F3007608F20053248031710828
:10025800AB007008AA00AA30860000308700203062
:100268008400003085000A30F80016001A00F80BE8
:10027800392927082B02031D432926082A020318B7
:100288004A292A08A6022B08A73B4C29A601A70140
:10029800AC012C35203E58258031CA3E2D258031B1
:1002A80003185C292C35F92480310318810A682940
:1002B8002C35CA3E58258031203E2D258031031823
:1002C80068292C35C82480310530AC0A2C02031C5F
:1002D8004D29B42408007B30D22480310630F10146
:1002E800F0070318F10A7708F3007608F2005324A0
:1002F80080317108AB007008AA00B4308600003065
:10030800870020308400003085000A30F80016008D
:100318001A00F80B8B292A08A6072B08A73D0330DB
:100328002702E93003192602031C9E29E830A6009B
:100338000330A700AC012C35203E68258031CA3E29
:10034800152580310318AE292C35F924803103187E
:10035800810ABA292C35CA3E68258031203E1525E8
:1003680080310318BA292C35C82480310530AC0AED
:100378002C02031C9F29B42408007B30D22480312E
:100388000530F101F0070318F10A7708F300760841
:10039800F200532480317108AB007008AA004D3078
:1003A80086000130870020308400003085000A3044
:1003B800F80016001A00F80BDD2925082B02031D8A
:1003C800E72924082A020318EE292A08A4022B0880
:1003D800A53BF029A401A5012A08A6072B08A73DDB
:1003E80003302702E93003192602031CFF29E830ED
:1003F800A6000330A700AC012C35203E70258031C3
:10040800CA3E2125803103180F2A2C35F924803162
:100418000318810A1B2A2C35CA3E70258031203EDC
:100428002125803103181B2A2C35C824803105303A
:10043800AC0A2C02031C002AB42408007B30D22406
:1004480080311030F101F0070318F10A7708F30042
:100458007608F200532480317108AB007008AA00B6
:10046800A0308600003087002030840000308500EE
:100478000A30F80016001A00F80B3E2A2A08A407CA
:100488002B08A53D03302502E93003192402031C7B
:10049800512AE830A4000330A50027082B02031DC9
:1004A800572A26082A0203185E2A2A08A6022B08B9
:1004B800A73B602AA601A7012A08A8072B08A93D7F
:1004C80003302902E93003192802031C6F2AE83097
:1004D800A8000330A900AC012C35203E50258031FE
:1004E800CA3E0925803103187F2A2C35F92480312A
:1004F8000318810A8B2A2C35CA3E50258031203EAC
:100508000925803103188B2A2C35C8248031053001
:10051800AC0A2C02031C702AB4240800D918412BF9
:10052800C501C601080053087D238031AA002A3579
:10053800D43EF000E830F101F2000330F300F4019A
:10054800F40AF5018E248031590E890C0739031DF0
:1005580008002A35D43E860087012A08A4007E3088
:10056800002584002508273D9631F3260800530806
:100578007D238031AA002A35D43EF000F101F20132
:10058800F301F401F40AF50168248031A82AF22461
:100598008031031D0800D91053087D238031AA003B
:1005A800D430F6002A081624803101300A242100AC
:1005B8005E140800F2248031031D0800D910590880
:1005C8001F394038D900DA0101300A240800F22422
:1005D8008031031D0800D91059081F396038D90027
:1005E800DA0101300A240800F2248031031D0800D2
:1005F800D91059081F398038D900A8012808A40043
:10060800DA30002586002508273D870028358D31FA
:10061800EE2580310530A80A2802031C022B013080
:100628000A240800F2248031031D0800D910590853
:100638001F39A038D900A9012908A400E6300025EF
:1006480086002508273D870029358D31EE25803124
:100658000530A90A2902031C202B01300A240800AE
:10066800F2248031031D0800D91059081F39203899
:10067800D900DA0101300A2408005308003A0319A6
:10068800DE2A033A0319CB2A063A0319BB2A033A8E
:100698000319BB2A0D3A0319CB2A063A0319972ADC
:1006A800033A0319972A1F3A0319BB2A033A031975
:1006B800972A063A0319CB2A013A0319BB2A0F3A9B
:1006C8000319CB2A053A0319972A5D3A0319BB2A5D
:1006D800013A0319162B043A0319342B0A3A031961
:1006E800EB2A1D3A0319F82A0E3A0319972A7C2B8C
:1006F8000800F000FF30F100972BF101082CF10100
:10070800F10A082C0230952B0330952B0430952BD9
:100718000530952B0630952B0730952B0830952BF7
:100728000930F100082C7008023A0319902B013A9D
:100738000319882B063A0319812B033A0319832BD3
:10074800013A0319862B0F3A03198A2B023A031927
:10075800882B013A0319832B073A0319862B013A90
:100768000319812B033A0319832B013A0319882BA8
:100778001F3A0319862B013A0319862B033A0319EA
:100788008A2B013A03198C2B073A0319812B013A5A
:1007980003198A2B023A0319832B0F3A0319882B62
:1007A800023A0319862B073A0319812B033A0319D6
:1007B800832B013A0319862B5D3A0319882B063AD5
:1007C80003198E2B013A03198C2B033A0319922B28
:1007D8000E3A0319942B033A0319812B073A03198C
:1007E8008E2B023A0319922B013A0319902B1E3AC9
:1007F80003198A2B0D3A0319832B013A03198A2B03
:10080800033A0319882B082C71080800F100F0003E
:10081800F00DF00D21005E08700603397006DE0049
:10082800C5240800A2000430220203180800A3010E
:10083800760886008701403FA000413FA1000330B1
:10084800F60AF60A2102E9300319200203184D2C92
:100858002308F700F801F735F80D2208F0000A30F0
:10086800F101F200F301532480318830F90023307C
:10087800FA0070087907FB0071087A3DFC007708D8
:100888007B07860078087C3D87002008C03F210848
:10089800C13F0530A30A2302031808001C2CF401E9
:1008A800F501701C5B2C7208F4077308F53DF235EE
:1008B800F30DF136F00C70087104031D552C750802
:1008C800F1007408F00008007008860071088700BD
:1008D800403FF600413FF70074087207F8007508BA
:1008E800733DF90077087902031D7C2C760878029D
:1008F80070088600710887000318892C7408810223
:1009080041317508813B7F3108007208C03F730888
:10091800C13F08007008860071088700403FF60054
:10092800413FF70074087607F8007508773DF9002D
:1009380073087902031DA22C7208780270088600D9
:10094800710887000318AF2C7408810741317508B6
:10095800813D7F3108007208C03F7308C13F08001D
:10096800F401743578257435BE3E8600413F8A000F
:10097800403F0A0005308431F40A74020318080065
:10098800B52C280017150800CA3E860001308701DB
:10099800810200304131813B7F31080086002330DD
:1009A800870042310108003E840098300318013E58
:1009B80085000008F00008008600403FF600413F2F
:1009C800F7007608013EF8000030773DF900750819
:1009D8007902031D0800740878020800C50A031983
:1009E800C60A0230460645040800CA3E86000130A1
:1009F8008701810741310800A501A435A50DA6008E
:100A08002330A7002408260708008600403FFA0084
:100A1800413FFB0079087B02031D080078087A0231
:100A280008008600403FFA00413FFB0079087B023E
:100A3800031D080078087A0208008600403FFA0083
:100A4800413FFB0079087B02031D080078087A0201
:100A580008008600403FFA00413FFB0079087B020E
:100A6800031D080078087A0208007B308600010C14
:100A7800FD00FD0C7D0C0F390800010CFD00FD0C7C
:100A88007D0C0F39080081002030D70A570203185F
:100A9800D7012100EC03080086008701403FF800D9
:100AA800413FF9002C35080086008701403FF800D7
:100AB800413FF9002C350800111220005708203E4C
:100AC800860001308700080086008701403FF80053
:100AD800413FF9002C35080086008701403FF800A7
:100AE800413FF9002C350800CA3E86008701403F87
:100AF800F000413FF100080086008701403FF40004
:100B0800413FF5007A350800010CFC00FC0C7C0C18
:100B18000F390800F70120001A08FB001908FA002D
:100B280099019A014A2E07307B02D13003197A02C3
:100B3800031C080009307B02C43003197A02031829
:100B480008005908E3390438D900C701C801D2019F
:100B58009227080000307B02DD3003197A02031C5B
:100B6800BE2D01307B02543003197A020318BE2DC2
:100B7800D20ADC2D02307B02D13003197A02031C21
:100B8800DA2D03307B02C03003197A020318DA2DFC
:100B98000130F300F401520AD32DF335F40D890B1B
:100BA800D12D7308C7047408C804BC2DE330D905D7
:100BB80010305202031C0800590C890C0739013AFD
:100BC800031DF22D02304706FD3003194806031DA8
:100BD8002B2E5908E3390838D9002D2E590C890CC9
:100BE8000739023A031D2D2E8F2780312000470830
:100BF800F9004808F700770F032E0130042E003063
:100C0800F300F4017906F5007408F6007504031979
:100C18002B2E79085A268031F800780F152EFF30D0
:100C2800182E780B1B2E7908D30059142B2E03305D
:100C380078060319232E02307806031D2B2E790817
:100C4800D3005908E3390C38D900D1012D2EE330EF
:100C5800D905C701C801D201080003307B02E93079
:100C680003197A02031C080004307B02E2300319DE
:100C78007A0203180800043051020318452ED10ADD
:100C88000800D9140800E330D9050800590C890C6C
:100C980007390319972D013A0319AE2D033A0319A1
:100CA800AE2D013A0319312E472E0800F200F1014A
:100CB800590E890C0739031D232F043072060319B6
:100CC800692E1C307206031D6C2EF101F10A8D2F5E
:100CD800720803197F2E5030720603197F2E4D308B
:100CE800720603197F2E4330720603197F2E473090
:100CF8007206031D812E03302E2F9E278031811806
:100D0800C02E8D2F692E9E2780310118692E9527B8
:100D180080310319692E95278031013A0319692E0C
:100D280095278031023A0319692E95278031033AB5
:100D38000319692E95278031043A0319692E8D2FDE
:100D48009E27803101188D2F95278031031D692E2C
:100D58008D2F9E2780310118692E95278031031D1C
:100D6800692E02302E2F9E2780310118B52E952727
:100D780080310319B52E8D2F7208013A0319872E79
:100D8800033A0319692E013A0319AD2E063A0319DD
:100D9800B72E033A0319B72E013A0319862E0F3AD4
:100DA8000319692E033A0319AD2E063A0319B72E13
:100DB800033A0319B72E013A0319692E1F3A03198A
:100DC800692E013A0319B72E033A0319B72E013ACF
:100DD8000319692E073A0319AD2E013A0319B72EE4
:100DE800033A0319A42E013A0319692E0F3A03197D
:100DF800692E023A0319AD2E013A0319872E063AD5
:100E08000319862E033A0319862E013A0319B72EC1
:100E18005F3A0319692E013A0319A42E033A0319FC
:100E2800B72E0E3A0319692E023A0319692E133A9E
:100E38000319692E033A0319B72E222F8D2FA827DD
:100E480080310319302FA32780310319302F5F2FEA
:100E5800B52EFF30F1008D2F7208033A0319692E61
:100E6800063A0319B52E033A0319B52E0F3A03199A
:100E7800692E023A0319692E063A03192C2F033AF0
:100E880003192C2F1F3A0319B52E033A0319B52E4F
:100E9800063A0319862E013A0319B52E0F3A03199B
:100EA800692E053A0319B52E5D3A0319B52E1C3A79
:100EB8000319B52E2D2FAD27803103196D2F9731CA
:100EC8009227803103196D2F973188278031031DB0
:100ED8008D2F72080A3A0319692E063A0319692EEA
:100EE800483A0319692E013A0319692E033A03197E
:100EF800692E0E3A0319692E033A0319862E043A0D
:100F08000319692E1E3A0319692E0D3A0319692E21
:100F18002D2F71080800210091140800210091105C
:100F280008007B3086002330010CF000F00C700CB8
:100F38000F3908007B308600233087000800590EDF
:100F4800890C0739053A0800590E890C0739043A03
:100F58000800590E890C0739013A08005E0C890C03
:100F68003F390319D52F2000D60A56080739031D23
:100F780008002100DE1CD12FE22721005E0CF000C2
:100F8800700C3F39F000F003F00DF00D5E087006AC
:100F980003397006DE00DE100800D9272100DE14B0
:100FA8000800EB272000D6010800250093139713AB
:100FB8002600931397132C00991308002500931704
:100FC80097172600931797172C00991708002800E1
:100FD800171108007E1CF12FFA2F20002E0826007A
:100FE800960020002D0826009500080071082600AC
:080FF800960070089500080046
:10100A00C8340034C83400349034013440340134D4
:10101A00903401340034003400340034E8340334AA
:10102A00C834003400340034F4340134F434013464
:10103A00F4340134C8340034F43401341B34113428
:10104A00C8341034EE340734DA341034B634103479
:10105A000530840088308500A03086000030870083
:10106A000030FF0028309031AA2088316430840093
:10107A00903085004D308600013087000030FF0037
:10108A000A309031AA2088317B30840023308500D1
:10109A007530FE000030FF0090319E2088314530C7
:1010AA008400003085001E30FE000030FF009031C1
:1010BA009E208831C8308400003085001C30FE0034
:1010CA000030FF0090319E208831203084000130AA
:1010DA0085002030FE000030FF0090319E208831CC
:1010EA007E102000782811238831C82288318B1776
:1010FA000B17432388313C21883188218831B72551
:10110A00883178228831BA25640087319E27883150
:10111A0001189B287B3086002330811C9B287B305A
:10112A0086002330811F9B28CA2088317322883188
:10113A007B228831F32288310323883108238831BE
:10114A00003A0319AF2887319E278831011CAF283E
:10115A00BC2488310C238831003A03198928873145
:10116A009E278831011CC728590C890C0739043A73
:10117A000319C728590C890C0739053A0319C728D6
:10118A0039248831BC228831892812301B218831C0
:10119A002E08B8002D08B70049084A04031DD828AC
:1011AA008B268831EA2838084E02031DDE283708C4
:1011BA004D020318E2288B2688314C083802031D99
:1011CA00E8284B0837020318EE283808CC003708FD
:1011DA00CB00C90A0319CA0A01304A0200300319AE
:1011EA004902031C0800C901CA018B135008AE004A
:1011FA004F08AD000F30AF00B001953160254B08A4
:10120A002D02B3004C082E3BB4004D083307B5003D
:10121A004E08343DB600350E0F39CF00360EF03980
:10122A00CF04360E0F39D0008B1708002000B0000B
:10123A00AF00AF0DAF0D21001D0820002F060339A6
:10124A002F0621009D001D140530890B2A29000054
:10125A0021009D142000111F2F29111321001C08A1
:10126A002000AE0021001B082000AD0008000D3050
:10127A002000B100FD30B000A230890B4229B00B2A
:10128A004229B10B42290000640095317525883145
:10129A000A302000B100BE30B0007930890B5329E2
:1012AA00B00B5329B10B532987319E278831011975
:1012BA0061292000B201662996319D2688312000D5
:1012CA00B200B30132089631142688310A30200060
:1012DA00B100BE30B0007930890B7129B00B712989
:1012EA00B10B7129013096312B2688310A30200042
:1012FA00B100BE30B0007930890B8129B00B812949
:10130A00B10B812908007222883147269531602560
:10131A0088312E08B9002D08B80072222000B300C7
:10132A00013E860087010108B8070318B90A873108
:10133A009E2788310118082A7B3086008118A62941
:10134A00D02E7B308600233087007526883103191A
:10135A00062A7B3086002330752688312100E20078
:10136A000130E3007B30860023308700010C200027
:10137A00B300B30C330C0F39013A0319CE29033ADF
:10138A000319DC29013A0319EA29073A0319F8294A
:10139A00072AB0300A268831B23067268831B4303D
:1013AA005B268831B63061268831B830182EBA30BB
:1013BA000A268831BC3067268831BE305B268831E0
:1013CA00C03061268831C230182EC4300A268831CE
:1013DA00C63067268831C8305B268831CA30612614
:1013EA008831CC30182ECE300A268831D030672684
:1013FA008831D2305B268831D43061268831D630A4
:10140A00182EE6260800E430B70136268831B400E3
:10141A00D8302A268831D83086002330870003182E
:10142A00222A403FB300413FB4003902031D1F2A5C
:10143A0033083802031C432A362A403FB300413F8F
:10144A00B400E4302A2688310318432AD8303626D5
:10145A008831B4003902031D342A330838020318CC
:10146A00412AE43036268831B4003902031D3F2A66
:10147A00330838020318432AB701B70A3708031991
:10148A005C2ABA013A08B300DA30E0258831EE2541
:10149A0088313A08B300DA30E0258831CA3E840040
:1014AA0013268831BA0A3A020318712A472ABA015E
:1014BA003A08B300E630E0258831EE2588313A084B
:1014CA00B300E630E0258831CA3E8400132688310D
:1014DA00BA0A3A02031C5D2AA32C60342000591C64
:1014EA0008009131472920001B140800111C08002C
:1014FA001110BA22883199019A01E330D905D91C11
:10150A00892AB52A5914B62A5308033A0319872A8D
:10151A00063A0319872A033A0319872A0D3A031947
:10152A00872A063A0319872A033A0319872A1F3A90
:10153A000319872A033A0319872A063A0319872ABD
:10154A00013A0319872A0F3A0319872A053A031918
:10155A00872A5D3A0319872A1C3A0319872AB62A69
:10156A00D910963175268831782A1B100800590E31
:10157A00890C073903190800DF0A0B305F02031CC4
:10158A00080091313F298E302000AD000530AE00B1
:10159A00EB228831EC302000AD001030AE00E3229F
:1015AA00883130302000AD000030AE000727883186
:1015BA00B2302000AD000730AE000F2F2E082100F8
:1015CA00EB0020002D082100EA0008002E08210067
:1015DA00E90020002D082100E800080021005E1C17
:1015EA0008005E1010302000B1007030B2007B306D
:1015FA00B3002330B4007530B500AA2F2000541D63
:10160A00003454110134D41C0034D41001342000A5
:10161A00541C0034541001345F2588312A23883140
:10162A00A1268831AC268831BB268831C526883167
:10163A00342388313A238831AC2588319026883181
:10164A009B268831EB278831E42F603032009900DD
:10165A009B0148309D0006309F009E0108008F3094
:10166A0025009300910192017B2E8F3097009501FE
:10167A0096011F08F33904389F0008001030200033
:10168A00AF007030B0007B30B1002330B20075304B
:10169A00B30036258831BF013F08B6007E30BC252D
:1016AA00883103193A02031C5F2B032688317E30E6
:1016BA00CF2588313F08B600DA30BC2588310319B6
:1016CA003A02031C6D2B03268831DA30CF25883184
:1016DA003F08B600E630BC25883103193A02031CDC
:1016EA007B2B03268831E630CF2588313F08B600A8
:1016FA00B030BC25883103193A02031C892B032612
:10170A008831B030CF2588313F08B600BA30BC25C1
:10171A00883103193A02031C972B03268831BA3001
:10172A00CF2588313F08B600C430BC25883103195B
:10173A003A02031CA52B03268831C430CF258831F1
:10174A003F08B600CE30BC25883103193A02031C83
:10175A00B22B03268831CE30CF25BE013F08B60012
:10176A00B701B635B70D3E0897313F278831953115
:10177A00602588318830B8002330B9002D08380731
:10178A00BA002E08393DBB0036083A0786003708EA
:10179A003B3D8700403FBC00413FBD0003303D0256
:1017AA00E93003193C02031CF92B0326B901B835A9
:1017BA00B90D3E0897313F27883195316025883128
:1017CA008830BA002330BB002D083A07BC002E0827
:1017DA003B3DBD0038083C07860039083D3D87007F
:1017EA003608C03F3708C13F0430BE0A3E02031C18
:1017FA00B32B7B30860023308700010CB600B60C71
:10180A00360C0F39B70009303702031C102C7B3015
:10181A00860087308105D8303D2688310319360283
:10182A00031C1A2CD83086268831E4303D268831AC
:10183A0003193602031C242CE430862688317B30B7
:10184A00860023308700053042310102031C332C05
:10185A007D30860023308700043081000530BF0ABE
:10186A003F02031C512B172F21005F0B4B2C00301A
:10187A006102FA300319600203184B2C5126043016
:10188A00B100B20195313A258831772C02305F06D2
:10189A00031D5E2C03306102E8300319600203184D
:1018AA005E2C5126B101B10AB20195313A2588312F
:1018BA00772CDF0155084B02031D652C54084A0298
:1018CA0003186B2CCA0A0319CB0A772C4B0855024A
:1018DA00031D712C4A0854020318772C0130CA02DE
:1018EA000030CB3B2100E00A0319E10A6018A22C60
:1018FA002000BB01BB0A3B35D43E6D268831CA3E67
:10190A001E2688310318902C3B358431F9248831FE
:10191A000318810A9D2C3B35CA3E6D268831D43E78
:10192A001E26883103189D2C3B358431C824883102
:10193A000530BB0A3B02031C802CA32C2000B101FA
:10194A003135CA3E86008701403FAD00413FAE00B7
:10195A003135BE3E8600413F8A00403F0A008C3145
:10196A0020000530B10A310203180800A52C7222A2
:10197A00883147269531602588312E08BC002D080C
:10198A00BB00722288312000B300013E8600870125
:10199A000108BB070318BC0AD83086002330870029
:1019AA00403FB700413FB800E4308600403FB900ED
:1019BA00413FBA003806031DE42C39083706031DD7
:1019CA00022DBF013F08B300E630F62588313F35C6
:1019DA00EE2588313F08B300E630F62588313F35D9
:1019EA00CA3E840013268831BF0A3F02031CE72C33
:1019FA002100DF01E001E101A32C38083C06031DA8
:101A0A00082D37083B06031D1E2DBD013D08B300F6
:101A1A00DA30F62588313D35EE2588310530BD0AA4
:101A2A003D02031C0B2D01302100DF00E001E10122
:101A3A0008003A083C06031D242D39083B06031DFD
:101A4A000800BE013E08B300E630F62588313E356F
:101A5A00EE2588310530BE0A3E02031C272D0230CE
:101A6A00192D3308B5003508031908003008AE00EF
:101A7A002F08AD00512588312000B40031088600B6
:101A8A003208870034088100AF0A0319B00AB10A84
:101A9A000319B20AB503382D2E083100920020002E
:101AAA002D083100910015171514000000003100AF
:101ABA001308080022008C0180308D008E0130301E
:101ACA0021008C0060308D0005308E000430230028
:101ADA008E008D018C01603024008D008C01013054
:101AEA008E0025008C018D018E0100308B1B013088
:101AFA002000AD008B13802688310F103D00250889
:101B0A00E0390C38A5002308E0390D38A300120883
:101B1A00E0390E3892002108E0390F38A100270871
:101B2A00E0390238A7003C001308E0391038930066
:101B3A003D001F08E03914389F00802688310F14B1
:101B4A0020002D1CAA2D8B1708008B1308008F303C
:101B5A00260093009101920125001F08CF39103801
:101B6A009F0008002000971708001F150800B701FA
:101B7A00B635B70DB8002330B900360838078600E5
:101B8A003708393D8700403FBA00413FBB00033068
:101B9A003B02E934B901B835B90DBA002330BB00AC
:101BAA0038083A07860039083B3D87003608C03FA7
:101BBA003708C13F0800B401B335B40DB50023306E
:101BCA00B6003308350786003408363D87003A35B3
:101BDA000800D43E84008501403F803F413F813F59
:101BEA000800B401B335B40DB5002330B60033088C
:101BFA00350786003408363D87000800E830B6000D
:101C0A000330B7003F08B800080086002330870079
:101C1A00403F2100D400413FD5000800403F803FAB
:101C2A00413F813F05348600403FDC00413FDD00F3
:101C3A0008008600403FB900413FBA0038083A021E
:101C4A00031D08003708390208008600403FB50026
:101C5A00413FB60034083602031D08003308350236
:101C6A000800860023308700403FB300413F080048
:101C7A00860023308700403FB600413FB700053059
:101C8A003702A0348600870101082000AD003C30ED
:101C9A00AE01AF00B0010800CA302000AD0000302C
:101CAA00AE00E830AF000330B00008008600403FC5
:101CBA00D800413FD90008008600403FDA00413F82
:101CCA00DB0008008600403FD600413FD7000800ED
:101CDA0086008701403FB700413FB8003B35080006
:101CEA00010CB300B30C330C0F3908001F08FC3980
:101CFA0001389F00080055303C008F00AA308F0041
:101D0A00080086000030C03FC13F08003808CE00F6
:101D1A003708CD0008008F302600970095019601FC
:101D2A0025001F083F3940389F00080080302C00EA
:101D3A009900970198017B2E20009701D7309800CF
:101D4A00FF30960095019012210090160800343059
:101D5A0020009B00C8309C0099019A0111102100B3
:101D6A0011102000911321009117080078302000EB
:101D7A009F00F9309E009D019110210091140800E6
:101D8A007B3028009700F9309600950120009210C8
:101D9A002100921408007B308600233087008110CE
:101DAA00AD012D35DF2688310530AD0A2D02031825
:101DBA000800D62ED43E860000308701C03FC13FBE
:101DCA00080001278831B1013108AD007E30AE012B
:101DDA00AD35AE0DAF002330B0002D082F078600B9
:101DEA002E08303D87003135EE2588310530B10A9D
:101DFA00310203180800E92E7B3086002330870061
:101E0A00811408002E082100E70020002D08210077
:101E1A00E60008002E082100E50020002D08210018
:101E2A00E40008007B3086002330870055304131BA
:101E3A000106031908007C308600233087005530DC
:101E4A008100B301A3278831DA3073278831330838
:101E5A00AD00E63084278831B030732788313308E3
:101E6A00AD00BA3084278831C43073278831A3275C
:101E7A008831CE30732788310530B30A3302031C08
:101E8A00272F8630AD000130AE00D83086002330CF
:101E9A0087002D08C03F2E08C13F5630AD000430E0
:101EAA00AE00E43086009A278831EA3086009A2705
:101EBA00BE3086002D08C03F2E08C13FC4308600C0
:101ECA000030C03FC13FC63086000030C03FC13F2E
:101EDA00D03086000030C03FC13F0800B001AF35A6
:101EEA00B00DB1002330B2002F0831078600300848
:101EFA00323D87002D08C03F2E08C13F0800AE01C1
:101F0A00AD35AE0DAF002330B0002D082F07860087
:101F1A002E08303D87000030C03FC13FE830AD0099
:101F2A000330AE003308AF0008002D08C03F2E086A
:101F3A00C13FE830AD000330AE000800E830AD0024
:101F4A000330AE003308AF0008003508B600360883
:101F5A00031908003208AE003108AD0033088600C4
:101F6A00340887000108AF00C3278831B30A031970
:101F7A00B40AB10A0319B20AB603AC2F00308B1B9C
:101F8A000130B0002E083100920020002D083100E7
:101F9A00910020002F0831009300151715158B1397
:101FAA0055309600AA30960095149518DA2F151117
:101FBA002000300C031C8B1303188B1708009D019B
:101FCA00D0309E009F019C019B01080021009112C4
:101FDA001112083023009F0090309D0024309E008B
:101FEA0001309C00A0309B0020002030D801D7018E
:061FFA002100EC000800CC
:1020C80000340034003400345834023440340034CE
:1020D80000340034901221006A086B0403190800C8
:1020E8006B088A006A080A009031080091132100E1
:1020F800680869040319080069088A0068080A0062
:10210800903108009110210066086704031908003F
:1021180067088A0066080A009031080092102100BA
:10212800640865040319080065088A0064080A0041
:10213800903108006400013080010131FE02003056
:10214800FF3B7F087E04031900349F28FE0012001D
:102158001E000130FE020030FF3B7F087E04031999
:102168000034AB287E1CB928C22820002E08250080
:10217800920020002D082500910008007108250014
:1021880092007008910008007E1CCB28D4282000FB
:102198002E082500960020002D082500950008002F
:1021A8007108250096007008950008007E1CDD283F
:1021B800E62820002E082600920020002D08260080
:1021C800910008007108260092007008910008002C
:1021D80020003C30E20A6202031C00293C30E20184
:1021E800E10A6102031CFF281830E101E00A6002DD
:1021F8000318E0015415D4145414080020302100A9
:102208006C020318192920005808203E8600013066
:102218008700010823009A0020002030D80A5802BD
:102228000318D8012100EC0A0800111208007E1CCE
:102238001E29302920002E08B0002D08AF000630D6
:10224800AF35B00D890B24292F082C0097002000EA
:1022580030082C00980008007108F3007008F2009C
:102268000630F235F30D890B352972082C009700DA
:102278007308980008001F30D905DA01DF01023021
:1022880059268931882959106F269131822C452782
:10229800083881000130811301102100E20021007B
:1022A8005E148931882191310F2D452791311038DD
:1022B800810002304F2945279131183881000330B9
:1022C8004F29452791312038810004304F29530880
:1022D80087259131BB007B30860023308700BB0DFA
:1022E800BB0DBB0D01083B0687393B0681008117F2
:1022F800011021005E142330010C2000BB00BB0C30
:102308003B0C0F392100E2005529752591317B30AE
:102318008600233087000310811C03148227913123
:1023280001083B06FD393B06810023300110532983
:1023380087319E27913101180F2D75258F3101277F
:102348009131011421005E148931882191312200D4
:10235800C2014235D43E860087014235CA3EAB26CB
:1023680091310530C20A420203180F2DAD29752597
:1023780091315308872591312200CC008D27913166
:10238800031DEE29F9269131CB014B084C06031D9C
:10239800DA29E8302000BB000330BC007C279131EB
:1023A80020003B08C03F3C08C13FDE294B358E3139
:1023B800DF2691317C2791314B082000BB007E300D
:1023C800782691310530CB0A4B02031CC92921001C
:1023D8005E140F2D2000DF010F2D87319E279131CC
:1023E800811C0F2D7B3086000310011D03148227EA
:1023F8009131BB0D01083B06FB393B0681007B3060
:10240800860001190A2A2200C0010E2A9D26913150
:102418002200C000C101400814269131EB2975251E
:1024280091315308872591312200CC004C35032780
:102438009131B22691313A259131590E890C0739DB
:10244800031DEE29F92691314C35D43E86008701CB
:102458004C082000BB007E30BC01BB35BC0DBD0064
:102468002330BE003B083D0784003C083E3DF32670
:102478009131EB2975259131530887259131220037
:10248800CC004C356A27913114259131212A7525C4
:1024980091315308872591312200CC00C3010530C2
:1024A80043020318632A4308242791316025913198
:1024B800122743358D31EE259131C30A532A8D27D2
:1024C8009131031DEE29F9269131C40105304402EA
:1024D8000318EB29440824279131602591311227EC
:1024E800913144082000C1007E30C201C135C20DBF
:1024F800C3002330C4004108430784004208443D18
:10250800F32691312200C40A6A2A8A269131031DD2
:10251800A72A2200C701053047020318A62B473512
:1025280003279131B22691313A259131220047355E
:10253800D43E8600870147082000BB007E307826FD
:102548009131C70A8F2A8A269131013A031DC62A7A
:102558002200C801053048020318A62B4835032776
:102568009131B22691313A25913122004835D43E35
:102578008600870148082000BB00B03078269131DA
:10258800C80AAE2A8A269131023A031DD62AD830C3
:10259800AD000030942691313A259131BE3009279B
:1025A8009131A62B8A269131033A031DF32AD8309C
:1025B800AD000030942691313A259131DA30AD00E2
:1025C8000030942691313A259131DC30AD0000304D
:1025D800942691313A259131DD269131A62B8A2610
:1025E8009131043A031DA62BD430AD000030942657
:1025F80091313A259131D830AD000030942691318F
:102608003A259131DA30AD000030942691313A25DF
:102618009131DC30AD000030942691313A2591316A
:10262800A42B8A269131031D312B2200C9010530C4
:1026380049020318A62B49356A279131142591318F
:1026480022004935D43E8600870149082000BB0096
:102658007E3078269131C90A1B2B8A269131013A9E
:10266800031D562B2200CA0105304A020318A62B67
:102678004A35D43E2000AD006430AE01AF00C8300A
:10268800B001B100B2011425913122004A35D43E7F
:10269800860087014A082000BB00B03078269131B7
:1026A800CA0A382B8A269131023A031D662BD83084
:1026B800AD000030B926913114259131BE3009277B
:1026C8009131A62B8A269131033A031D832BD830EA
:1026D800AD000030B926913114259131DA30AD00C2
:1026E8000030B926913114259131DC30AD0000302D
:1026F800B926913114259131DD269131A62B8A26F0
:102708009131043A031DA62BD430AD000030B92610
:10271800913114259131D830AD000030B92691316E
:1027280014259131DA30AD000030B92691311425E5
:102738009131DC30AD000030B9269131142591314A
:10274800C12691317B308600233087000110811328
:10275800EB297D30AD002330AE00AF01B001B101EF
:10276800B10AB201142591319D2691311426913177
:10277800EB297D30AD002330AE000430AF00B0014E
:10278800B101B10AB2013A2591319D269131142641
:102798009131EB2904305A020318DC2B5A085B3EAE
:1027A800860087015308872591318100DA0ADD2BDD
:1027B800DA015A08B0005B3097279131003A031DBF
:1027C800EB2B03305926913166269131EE290430DE
:1027D8005A06031DEE298731AD279131031D172CA9
:1027E8008A317222913186000A3087012000AD00BB
:1027F8005B08E5275C0781008A317222913120004D
:10280800BB00013E86000A308701AD005D08E52760
:102818005E07810087319E279131011CE82B8931A1
:1028280088219131E82B92279131031D2D2C5427B3
:102838009131602591315F279131602591314C2785
:1028480091313F2791316025913132279131D8302C
:10285800422C88279131031DE82B5427913160259C
:1028680091315F279131602591314C2791313F2774
:1028780091316025913132279131E43074279131BB
:1028880021005E140E2C8731A8279131031D632C7B
:102898002200C5010530450203185E2C4535D43E9B
:1028A8008600870145082000BB00DA307826913180
:1028B800C50A4E2C21005E14662691310F2D8731F2
:1028C800A3279131031D0F2D2200C60105304602B2
:1028D80003185E2C4635D43E860087014608200042
:1028E800BB00E63078269131C60A6A2C1F30D9051C
:1028F800DA01DF010330592691310F2D20005308EA
:10290800013A0319152B033A03196B29013A0319E4
:102918004B2A073A03199C29013A03193E2A033A1C
:1029280003193E2A013A0319BB290F3A0319BB2997
:10293800013A0319472C033A0319CE2B013A03191C
:102948004B2A073A0319CE2B013A0319132A033AE3
:102958000319132A013A03195F291F3A0319592940
:10296800013A03193E2A033A0319132A013A0319B3
:102978006B29073A03194B2A013A03193E2A033AED
:102988000319AD2B013A03194B290F3A0319BB2937
:10299800023A03194B2A013A0319892A073A0319FB
:1029A8008929013A0319BB29033A0319BB29013ABA
:1029B8000319132A5F3A0319F129013A0319BD2BA8
:1029C800033A03193E2A063A0319CE2B013A031992
:1029D800CE2B033A0319CE2B0E3A0319CE2B033A0A
:1029E8000319CE2B073A03196B29023A03196B29ED
:1029F800013A0319CE2B1E3A0319CE2B0D3A0319AF
:102A0800CE2B013A03196529033A0319132AA13A6F
:102A180003197A2C0F2D7526FF302000D3000800EB
:102A28002D0886002E088700403FB300413FB400C0
:102A380031082F07B5003208303DB6003408360299
:102A4800031D282D330835022D0886002E0887001F
:102A58000318352D3108810241313208813B7F311D
:102A680008002F08C03F3008C13F08002D08860025
:102A78002E088700403FB300413FB40031083307B8
:102A8800B5003208343DB60030083602031D4E2D1D
:102A98002F0835022D0886002E08870003185B2DA5
:102AA8003108810741313208813D7F3108002F0804
:102AB800C03F3008C13F0800B101B2012D1C682D8C
:102AC8002F08B1073008B23DAF35B00DAE36AD0CAA
:102AD8002D082E04031D622D3208AE003108AD000A
:102AE800080020007E30AE01422691310330422694
:102AF8009131AE07AB3042269131AE072E084226FF
:102B08009131EF30422EAD00FF30AE00A12DAE0165
:102B1800122EAE01AE0A122E02309F2D03309F2DC9
:102B280004309F2D05309F2D06309F2D07309F2D97
:102B380008309F2D0930AE00122E2D08023A0319D5
:102B48009A2D013A0319922D063A03198B2D033A4F
:102B580003198D2D013A0319902D0F3A0319942D5D
:102B6800023A0319922D013A03198D2D073A0319D8
:102B7800902D013A03198B2D033A03198D2D013A33
:102B88000319922D1F3A0319902D013A0319902D1C
:102B9800033A0319942D013A0319962D073A03199C
:102BA8008B2D013A0319942D023A03198D2D0F3AF2
:102BB8000319922D023A0319902D073A03198B2D08
:102BC800033A03198D2D013A0319902D5D3A031923
:102BD800922D063A0319982D013A0319962D033AB6
:102BE80003199C2D0E3A03199E2D033A03198B2DB8
:102BF800073A0319982D023A03199C2D013A031933
:102C08009A2D1E3A0319942D0D3A03198D2D013A68
:102C18000319942D033A0319922D122E2E08080039
:102C28002000AE007E30AF014226913104304226AA
:102C38009131AF07AE3042269131AF072E084226B8
:102C48009131AF072F0842269131EF30422E2000F4
:102C5800AE007E30AF0142269131043042269131D8
:102C6800AF07AF3042269131AF072E084226913187
:102C7800AF072F0842269131EF30422EAD002100D8
:102C88006C080319432E111A4E2E20002D0823001C
:102C98009A00542E8531602591312D0885314725BC
:102CA8002100111620002D080800AE00AD00AD0D62
:102CB800AD0D21005E0820002D0603392D062100E8
:102CC800DE00722E1F302000D905DA01DF01013045
:102CD80059268931882921009110080028001715E4
:102CE8000800210091140800BC01BB35BC0DBD00D3
:102CF8002330BE003B083D0784003C083E3D85006C
:102D0800403F803F413F813F220008007B308600E2
:102D180023308700010CBB00BB0C3B0C0F390800AB
:102D2800AE00E830AF000330B000C830B100B201E7
:102D380008007B3086002330870042310108053EB9
:102D4800840098300318013E8500000808008400BC
:102D58008501403F803F413F813F0800AF0003307D
:102D6800B000C830B100B2010800AE006430AF0056
:102D7800C830B001B100B2010800CE30860023305F
:102D8800870021005408C03F5508C13FD230860053
:102D98005808C03F5908C13FD43086005A08C03F80
:102DA8005B08C13FD63086005C08C03F5D08C13F64
:102DB8000800C83086002330870021005808C03F2B
:102DC8005908C13FCA3086005A08C03F5B08C13F56
:102DD800CC3086005C08C03F5D08C13F0800850014
:102DE800403F803F413F813F08007B3086002330D1
:102DF8008700873001108105811322000800D43E26
:102E08002000AD00E830AE010800860023308700BE
:102E180021005808C03F5908C13F08008830BD004C
:102E28002330BE002D083D07BF002E083E3DC000E0
:102E38003B083F0786003C08403D87002200080009
:102E48002000BB00BC01BB35BC0D22004C08200093
:102E5800AD000A30AE01AF00B00108002D083F07F1
:102E6800C1002E08403DC2003B084107C3003C0892
:102E7800423DC4000800AD000A30AE01AF00B00109
:102E880008007B3086002330870001088739080056
:102E98002D083D07BF002E083E3DC0005D08080014
:102EA8005E08BB00BC015B08AD005830AE01AF0046
:102EB8000230B00008002D08BD002E08BE005C08D6
:102EC800AD003C30AE01AF00B0010800D43E200098
:102ED800AD00C830AE01AF01B001B100B2010800C9
:102EE8008600233087004308C03F4408C13F0800DC
:102EF80022004B35D43E8600870108000030093D8A
:102F0800BB002330BB0D0800590E890C0739033A62
:102F180008002000590E890C07390800590E890C41
:102F28000739023A0800B400B201B101D52F3408BC
:102F380086000330870101020318E32FB201B20AA9
:102F4800E32FF1279131E5279131FB279131A02F0C
:102F5800F1279131E5279131FB2791310318E32FB0
:102F68003408023E860006309E2FF1279131E5276E
:102F780091310107B3003408033E86000A30870107
:102F8800AD003408023E840085010008E527913130
:102F98000107B100183033020318E32F3C30310227
:102FA800A02F3008013A03199B2F033A0319A52FC4
:102FB800013A0319AC2F073A0319B92FE32F320846
:102FC8000800AF00AE012D082F18AE07AD35AF369B
:102FD8002F08031DE72F2E080800340A86000A3040
:102FE8008701AD0034088400850100080800010746
:102FF800B3001830330208000734053403340134B1
:0C30080000340E341134143417341A3420
:020000040001F9
:08000E00ECDF3DFDFFFFFFFFE9
:00000001FF
