:0400000080312E28F5
:100008007E1480312000911F0D289431B72480314F
:100018002C282100911C17282000911C17289431A6
:10002800C32480312C282000901E1E289431AB2434
:1000380080312C28921C24289431CF2480312C28FC
:100048002100111E2C282000111E2C28953139253D
:100058007E10090088310A2821005D0B42280030F3
:100068005F02FA3003195E0203184228A720043001
:10007800D200D3018D3130258031702802305D06E1
:10008800031D552803305F02E83003195E02031888
:100098005528A720D201D20AD3018D3130258031CD
:1000A8007028DD01DE01DF0153084902031D5E28C7
:1000B8005208480203186428C80A0319C90A702894
:1000C80049085302031D6A28480852020318702879
:1000D8000130C8020030C93B2100DE0A0319DF0ADB
:1000E8005E1899282000DC01DC0A5C35D23EB1207C
:1000F8008031C83E9B208031031888285C35F12266
:1001080080310318810A94285C35C83EB1208031BB
:10011800D23E9B208031031894285C35DC22803144
:100128000530DC0A5C02031C79288A31462A8600DD
:10013800403FDA00413FDB0059085B02031D08001D
:1001480058085A020800C8302000CE000030CF00FE
:10015800E830D0000330D100080086008701403F16
:10016800D800413FD9005C350800E62280310630CE
:10017800F101F0070318F10A7708F3007608F20096
:10018800B422803171082000CB007008CA00B43056
:1001980086000030870040308400003085000A3037
:1001A800F80016001A00F80BD5284A08C6074B08AD
:1001B800C73D03304702E93003194602031CE8280B
:1001C800E830C6000330C700CC014C35403E482318
:1001D8008031C83E042380310318F8284C35F122B9
:1001E80080310318810A04294C35C83E48238031E0
:1001F800403E04238031031804294C35DC22803129
:100208000530CC0A4C02031CE928C922080020301A
:1002180021006102031C242920306106031D1A29CC
:100228002200582380316221803124294030610224
:10023800031C242940306106031D252950218031E3
:10024800E10A2200A01F080058238031053A03194B
:100258003729033A03193D29013A031943290F3A6B
:10026800031949294F2920002D08F7002C08F6000A
:10027800B92820002D08F7002C08F6009129200045
:100288002D08F7002C08F600442A20002D08F70056
:100298002C08F600E32908007E30F1017D21803129
:1002A80003307D218031F10611307D218031F10646
:1002B80071087D218031EF307D210800F1007E300A
:1002C800F2017D21803105307D218031F2064130F7
:1002D8007D218031F20600307D218031F2067108DF
:1002E8007D218031F20672087D218031EF307D2139
:1002F8000800F00020005E0803197E292100111A69
:100308008929700823009A008D29402380317008BC
:1003180028232100111670080800E62280310530D4
:10032800F101F0070318F10A7708F3007608F200E4
:10033800B422803171082000CB007008CA00AA30AE
:1003480086000030870040308400003085000A3085
:10035800F80016001A00F80BAD2947084B02031DD8
:10036800B72946084A020318BE294A08C6024B089C
:10037800C73BC029C601C701CC014C35403E3823D4
:100388008031C83E1C2380310318D0294C35F12216
:1003980080310318810ADC294C35C83E3823803166
:1003A800403E1C2380310318DC294C35DC22803187
:1003B8000530CC0A4C02031CC129C9220800E622D8
:1003C80080310530F101F0070318F10A7708F300CE
:1003D8007608F200B422803171082000CB00700842
:1003E800CA00D230860001308700403084000030D7
:1003F80085000A30F80016001A00F80BFF29450896
:100408004B02031D092A44084A020318102A4A0805
:10041800C4024B08C53B122AC401C5014A08C607D5
:100428004B08C73D03304702E93003194602031C55
:10043800212AE830C6000330C700CC014C35403EC5
:1004480050238031C83E102380310318312A4C359F
:10045800F12280310318810A3D2A4C35C83E5023C9
:100468008031403E1023803103183D2A4C35DC2270
:1004780080310530CC0A4C02031C222AC92208000C
:10048800E62280311030F101F0070318F10A7708ED
:10049800F3007608F200B422803171082000CB0006
:1004A8007008CA00A0308600003087004030840001
:1004B800003085000A30F80016001A00F80B602A90
:1004C8004A08C4074B08C53D03304502E930031903
:1004D8004402031C732AE830C4000330C5004708EF
:1004E8004B02031D792A46084A020318802A4A0843
:1004F800C6024B08C73B822AC601C7014A08C8077B
:100508004B08C93D03304902E93003194802031C6E
:10051800912AE830C8000330C900CC014C35403E70
:1005280030238031C83EF82280310318A12A4C3587
:10053800F12280310318810AAD2A4C35C83E302398
:100548008031403EF82280310318AD2A4C35DC2238
:1005580080310530CC0A4C02031C922AC9220800BB
:10056800F401F501701CBC2A7208F4077308F53D04
:10057800F235F30DF136F00C70087104031DB62A3C
:100588007508F1007408F0000800F401743585312D
:10059800D02580317435BE3E8600413F8A00403FF9
:1005A8000A0005308231F40A740203180800CA2AC6
:1005B800C83E860001308701810200304131813B0D
:1005C8007F31080022002108003E8400983003187B
:1005D800013E85000008F0000800C83E8600013092
:1005E80087018107413108008600403FFA00413FFA
:1005F800FB0079087B02031D080078087A020800CE
:100608008600403FFA00413FFB0079087B02031D4A
:10061800080078087A0208008600403FFA00413F47
:10062800FB0079087B02031D080078087A0208009D
:100638008600403FFA00413FFB0079087B02031D1A
:10064800080078087A02080081002030B40A3402D1
:100658000318B401DE03080086008701403FF80054
:10066800413FF9004C35080086008701403FF800FB
:10067800413FF9004C350800111220003408A03E13
:10068800860001308700080086008701403FF80097
:10069800413FF9004C35080086008701403FF800CB
:1006A800413FF9004C350800200CFC00FC0C7C0C88
:1006B8000F3908002000B10A31080339031D662BE1
:1006C8007F2383312000E525833103196F2BE02533
:1006D8008331031D702B792D220020180800A01CDF
:1006E8006F2B200C2000CD00CD0C4D0C0F390319B9
:1006F8006F2B81310B29B618232CA801A9010800FA
:1007080032085F248331FD007D35D23EF000E830A9
:10071800F101F2000330F300F401F40AF501502569
:100728008331360E890C0739031D08007D35D23E0A
:10073800860087017D35223E8E31BF2608003208AB
:100748005F248331FD007D35D23EF000F101F201D6
:10075800F301F401F40AF5012A258331952BC92503
:100768008331031D0800B61032085F248331FD0071
:10077800D230F3007D08EE2483310130E2242100D9
:100788005C140800C9258331031D0800B61036081B
:100798001F394038B600B7010130E2240800C925E6
:1007A8008331031D0800B61036081F396038B600BB
:1007B800B7010130E2240800C9258331031D080070
:1007C800B61036081F398038B600FB017B35563E17
:1007D8008600013087007B358E31B726833105309E
:1007E800FB0A7B02031CEA2B0130E2240800C9251E
:1007F8008331031D0800B61036081F39A038B6002B
:10080800FC017C35623E8600013087007C358E31E4
:10081800B72683310530FC0A7C02031C052C013005
:10082800E2240800C9258331031D0800B6103608E4
:100838001F392038B600B7010130E2240800320819
:10084800063A0319162C163A0319C62B013A03194E
:10085800E02B033A0319D32B013A0319FB2B533A24
:100868000319A32B013A0319842B053A0319842B86
:10087800013A0319842B0D3A0319A32B013A0319E2
:10088800A32B053A0319B32B013A0319B32B1D3ACD
:100898000319B32B013A0319B32B053A0319A32BF8
:1008A800013A0319A32B0D3A0319842B013A0319B2
:1008B800842B5E2C0800F100FF30F0007E2CF00144
:1008C800E02CF001F00AE02C02307C2C03307C2C68
:1008D80004307C2C7108E53E7C2C7108F13E7C2CA0
:1008E8007108F43E7C2C7108FC3E7C2C7108043E97
:1008F800F000E02C7108043A03197A2C013A031924
:100908007A2C0D3A0319772C013A0319772C033AFC
:100918000319772C013A0319772C073A0319742C19
:10092800013A0319742C033A0319742C013A031978
:10093800742C1B3A0319712C013A0319712C033AD0
:100948000319712C013A0319712C0B3A03196E2CF7
:10095800013A03196E2C033A03196E2C013A031954
:100968006E2C5F3A03196C2C013A03196C2C053A6A
:1009780003196A2C013A0319682C0D3A03196A2CD9
:10098800013A0319682C053A03196A2C013A03192C
:10099800682C1D3A0319632C013A0319652C053A92
:1009A8000319632C013A0319652C0D3A0319632CBA
:1009B800013A0319652CE02C70080800F100F000DA
:1009C800F00DF00D21005C08700603397006DC009C
:1009D80076250800F7000430770203180800FA01AA
:1009E800730886008701403FF800413FF900033053
:1009F800F30AF30A7902E930031978020318182D6B
:100A08007A08F4002C30F4357407F5000A30F00049
:100A180077081E2583317507F600860001308700A8
:100A28007808C03F7908C13F0530FA0A7A020318EE
:100A38000800F42CF100F20170087118F207F03583
:100A4800F1367108031D202D720808007008860011
:100A580071088700403FF600413FF70074087207AD
:100A6800F8007508733DF90077087902031D3E2DDB
:100A780076087802700886007108870003184B2DE5
:100A88007408810241317508813B7F310800720882
:100A9800C03F7308C13F08007008860071088700CE
:100AA800403FF600413FF70074087607F8007508E4
:100AB800773DF90073087902031D642D72087802E6
:100AC80070088600710887000318712D7408810763
:100AD80041317508813D7F3108007208C03F7308B5
:100AE800C13F0800280017150800FA017A35D23EE0
:100AF800D8258331C83EB725833103188A2D7A3526
:100B08008231F12283310318810AA02D7A35C83E3B
:100B1800D8258331D23EB72583310318982D7A35ED
:100B28008231DC228331A02D7A35D23E86008701BE
:100B38007A35C83EB02583317A35D0257A35BE3E20
:100B48008600413F8A00403F0A0005308531FA0A95
:100B58007A02031808007A2D84008501403F803FFF
:100B6800413F813F08008600403FF600413FF700C3
:100B78007608013EF8000030773DF90075087902E3
:100B8800031D0800740878020800A80A0319A90AB6
:100B98000230290628040800C83E86008701403F25
:100BA800F000413FF100080086008701403FF40053
:100BB800413FF5007A350800360E890C0739053AA9
:100BC8000800360E890C0739043A0800F70120009E
:100BD8001A08FB001908FA0099019A01A82E073093
:100BE8007B02D13003197A02031C080009307B020A
:100BF800C43003197A02031808003608E3390438A8
:100C0800B600A601A701AE01C227080000307B028A
:100C1800DD3003197A02031C1A2E01307B0254308E
:100C280003197A0203181A2EAE0A382E02307B02F4
:100C3800D13003197A02031C362E03307B02C030F0
:100C480003197A020318362E0130F300F4012E0A34
:100C58002F2EF335F40D890B2D2E7308A604740876
:100C6800A704182EE330B60510302E02031C080026
:100C7800360C890C0739013A031D4B2E270A260426
:100C8800031D892E3608E3390838B6008B2E360C3A
:100C9800890C0739023A031D8B2EBF2785312000A6
:100CA8002608F9002708F700770F5C2E01305D2E23
:100CB8000030F300F4017906F5007408F6007504B5
:100CC8000319892E7908B8268531F800780F6E2E19
:100CD800FF30712E780B752E79082000B20036147B
:100CE800892E0330780603197D2E02307806031DFD
:100CF800862E79082000B2003608E3390C38B60091
:100D0800AF018B2EE33020008A2EE330B605A60112
:100D1800A701AE01080003307B02E93003197A020B
:100D2800031C080004307B02E23003197A0203181E
:100D3800080004302F020318A32EAF0A0800B614C7
:100D48000800E330B6050800360C890C073903198A
:100D5800F32D013A03190A2E033A03190A2E013A10
:100D680003198F2EA52E0800F200F101360E890C0A
:100D78000739031D532F5D3072060319C72E5C30E7
:100D88007206031DCA2EF101F10ABD2F103072063A
:100D98000319DE2E113072060319DE2E1230720688
:100DA8000319DE2E133072060319DE2E0630720682
:100DB800031DE02E0330602F2200A018022FBD2F44
:100DC800C72E2018C72EC52785310319C72EBD2F5A
:100DD8002018BD2FC5278531031DC72EBD2F20180C
:100DE800C72EC5278531031DC72E0230602F201856
:100DF800F92EC52785310319F92EBD2F7208143A2B
:100E08000319C72E013A0319C72E033A0319C72E2F
:100E1800013A0319C72E0F3A0319E52E013A0319AF
:100E2800E52E033A0319EC2E013A0319EC2E073A82
:100E38000319E42E013A0319C72E033A0319C72EE2
:100E4800013A0319C72E5F3A0319FB2E013A031919
:100E5800FB2E053A0319FB2E013A0319FB2E0D3A16
:100E68000319FB2E013A0319FB2E053A0319F32E39
:100E7800013A0319F32E1D3A0319F32E013A031907
:100E8800F32E053A0319FB2E013A0319FB2E0D3AEE
:100E98000319FB2E013A0319FB2E522FBD2F853162
:100EA800E52585310319622F8531E0258531031940
:100EB800622F912FF92EFF30F100BD2F7208073AEB
:100EC8000319C72E473A0319F92E013A0319F92EC7
:100ED800053A0319F92E013A0319F92E0D3A0319A7
:100EE800F92E013A0319F92E053A0319C72E013ACA
:100EF8000319C72E1D3A0319E42E013A0319C72E08
:100F0800053A0319F92E013A0319F92E0D3A031976
:100F18005E2F013A03195E2F5F2FD52785310319FC
:100F28009D2FCB27853103199D2FD0278531031D90
:100F3800BD2F7208043A0319C72E013A0319C72EA8
:100F48000D3A0319C72E013A0319C72E033A03199C
:100F5800C72E013A0319C72E073A0319E42E013A9E
:100F68000319C72E033A0319C72E013A0319C72ECE
:100F78005F2F7108080021009114080021009110CA
:100F88000800200CF000F00C700C0F390800360E29
:100F9800890C0739023A0800360E890C0739033ADA
:100FA8000800360E890C0739013A08007E1CDD2F2F
:100FB800EF2F20004F08D1004E08D0000630D03562
:100FC800D10D890BE32F50082C0097002000510801
:100FD8002C00980008007108F3007008F200063031
:100FE800F235F30D890BF42F72082C009700730863
:040FF8009800080055
:1010000000340034003400345834023440340034A6
:10101000003400345030840095308500A0308600C4
:101020000030870028309431A524883100308400B6
:1010300088308500D2308600013087000A30943134
:10104000A524883120308400003085002030943180
:101050009F248831C8308400003085001A309431D4
:101060009F24883120308400013085004C30943139
:101070009F248831A03084000130850020309431D5
:101080009F2488317E102000452897310F27883112
:101090009A268B170B17963138268831FE20883117
:1010A000B526883148268831E62788316400220039
:1010B000201CA01C5F28A01F5F288D20883144269B
:1010C00088314B26883192278831D8278831DD270F
:1010D0008831003A031972282200201C72289531A9
:1010E000B4258831E1278831003A031956282200B7
:1010F000201C8A282000360C890C0739043A031971
:101100008A28360C890C0739053A03198A28803158
:10111000302088318E26883156281230DD208831E3
:101120004F08D9004E08D80020082104031D9B2831
:1011300073278831AD2859082302031DA1285808B8
:1011400022020318A5287327883125085902031D98
:10115000AB28240858020318B1285908A5005808DC
:10116000A400A00A0319A10A0130210200300319CA
:101170002002031C0800A001A1018B132D08CF0041
:101180002C08CE000F30D000D101D12424084E020B
:10119000D40025084F3BD50022085407D600230869
:1011A000553DD700560E0F39AC00570EF039AC0440
:1011B000570E0F39AD008B1708002000D100D0006A
:1011C000D00DD00D21001D08200050060339500617
:1011D00021009D001D140530890BEC280000210022
:1011E0009D142000111FF128111321001C0820005C
:1011F000CF0021001B082000CE0008000A3020008C
:10120000D500BE30D4007930890B0429D40B0429D1
:10121000D50B0429BF248831FA302000D40058307F
:10122000890B1029D40B10290000220020191B293A
:101230002000D6011F29082788312000D600D701B9
:1012400056080D228831FA302000D4005830890B1E
:101250002729D40B272900000230F6218831FA30E3
:101260002000D4005830890B3329D40B33290000D7
:101270005625883149278831D12488314F08DA0032
:101280004E08D900562588312000D400013E860042
:1012900087010108D9070318DA0A220020189A29C1
:1012A000A0185329242A532788310319982922008A
:1012B000532788312100E0000130E10088296D27A3
:1012C0008831CB00E830CA000330CD00E830CC00D4
:1012D0000330CF00E830CE000330D100E830D0003A
:1012E000462A2100C801C901CA01CB010330CD0043
:1012F000E830CC00CE01CF01D001D101702921000E
:10130000C801C90185296D278831CA01CB0164292B
:10131000220053278831013A03195F29033A031940
:101320007129013A03197F29073A03198329992959
:10133000342208002000D801220061085502031D54
:10134000A329600854020318AF29550820005A0247
:10135000031DAC2978278831031CCE29C0295508E4
:101360006102031DB529540860020318CE295508EF
:1013700020005A02031DBE29782788310318CC2982
:101380002200610820005A02031DCA2922006008B9
:10139000200059020318CE29D801D80A2000580885
:1013A0000319E429DB015B35563E1E278831B72639
:1013B00088315B35563E23278831EA268831DB0A9F
:1013C0005B0203187029D329DB015B35623E1E27BF
:1013D0008831B72688315B35623E23278831EA267B
:1013E0008831DB0A5B0203187029E5292000CF0051
:1013F0007E30D001E62488310430E6248831D006DE
:101400003330E6248831D0064F08E6248831D006F0
:101410005008E6248831EF30E62C2000CF007E30E3
:10142000D001E62488310430E6248831D0063130FA
:10143000E6248831D0064F08E6248831D0065008CB
:10144000E6248831EF30E62CA0102000CE014E3586
:10145000D23E860000308701C03FC13F0530CE0A32
:101460004E0203180800272A2200A0142000CE01F3
:101470004E35223E8600013087004E35B726883132
:101480000530CE0A4E0203180800382A2000D20187
:101490005235C83E86008701403FCE00413FCF0015
:1014A0005235BE3E8600413F8A00403F0A008A31E5
:1014B00020000530D20A520203180800482A3610CC
:1014C00064258831402CBF248831220020088739C8
:1014D0000838A000A013201001302100E0002100F6
:1014E0005C14FE208831BB2CBF24883122002008E8
:1014F00087391038A000A013201002306D2ABF24B5
:1015000088312200200887391838A000A013201045
:1015100003306D2ABF248831220020088739203803
:10152000A000A013201004306D2ABF248831320897
:101530006A2588312300C000C00DC00DC00D2200F7
:10154000200823004006873940062200A000A0178B
:10155000201021005C142200200C2300C000C00CCD
:10156000400C0F392100E000712ABF24883103109C
:101570002200A01C0314031CC02A2200A014C22AAB
:101580002200A01020106F2ABF2488312200A0144E
:10159000201421005C14FE202300CA014A35D23EEB
:1015A000860087014A35C83E8531B025883105302F
:1015B000CA0A4A020318BB2CCE2ABF24883132083B
:1015C0006A2588312300D1005135282788313025FC
:1015D0008831360E890C0739031DFC2A5A278831B9
:1015E00023005135D23E860087015135223EBF2669
:1015F000883121005C14BB2CBC01BB2CBF2488317A
:1016000032086A2588312300D10051353F278831BF
:101610000A258831E92ABF24883132086A258831B1
:101620002300D100CB0105304B020318232B4B08BC
:1016300034278831FD248831602788314B35B7261F
:101640008831CB0A132B2000360E890C0739031D75
:10165000FC2A5A2788312300CC0105304C0203189C
:10166000F92A4C0834278831FD24883160278831D5
:101670004C35223EBF268831CC0A2D2BBF24883121
:101680002300CF0105304F0203186E2B4F3528275A
:1016900088313025883123004F35D23E86008701BE
:1016A0004F35223EBF268831CF0A422BBF248831D6
:1016B0002300D0010530500203186E2B50353F2710
:1016C00088310A25883123005035D23E86008701B3
:1016D0005035223EBF268831D00A5A2B5A278831EE
:1016E000F92A2130CE000130CF00D001D101D20142
:1016F000D20AD3010A2588312200082788310D2219
:101700008831F92A2130CE000130CF000430D000DA
:10171000D101D201D20AD301302588312200082715
:1017200088310D228831F92A043037020318A22BA0
:101730003708383E8600870132086A2588318100E3
:10174000B70AA32BB7013708D1003830F625883106
:10175000003A031DB12B033057258831ED25883120
:10176000FC2A04303706031DFC2A8731D52788312F
:10177000031DD52B56258831672788313808FD246D
:10178000883139078100562588312300C000013E89
:10179000672788313A08FD2488313B078100220001
:1017A000201CAE2BFE208831AE2B8731CB27883111
:1017B000031DEE2B11278831D1248831F926883179
:1017C000D1248831D9268831D1248831C72688315F
:1017D000D400230049082200D500062C8731D027E9
:1017E0008831031DAE2B11278831D1248831F92689
:1017F0008831D1248831D9268831D1248831C7262F
:101800008831E000230049082200E10021005C1437
:10181000CF2B8531E5258831031D232C2300CD01F5
:1018200005304D0203181E2C4D35D23E860087012F
:101830004D35563EBF268831CD0A102C21005C1450
:10184000ED258831BB2C8531E0258831031DBB2C6B
:101850002300CE0105304E0203181E2C4E35D23E19
:10186000860087014E35623EBF268831CE0A2A2C7B
:101870001F30B605B701BC01033057258831BB2C9A
:1018800020003208043A0319942B013A0319942BCF
:10189000023A0319092C0F3A0319942B013A031940
:1018A000942B033A0319942B013A0319942B073A0A
:1018B0000319942B013A0319942B033A0319942B1F
:1018C000013A0319942B1B3A0319952A013A03197B
:1018D000952A033A0319952A013A0319952A0F3AD2
:1018E0000319562B013A03193E2B033A0319712BA6
:1018F000013A0319822B073A0319632A013A0319A3
:10190000742A033A03197F2A013A03198A2A5F3A93
:101910000319FE2A013A0319DD2A053A0319DD2AC3
:10192000013A0319DD2A0D3A0319FE2A013A031977
:10193000FE2A053A03190B2B013A03190B2B1D3A0A
:1019400003190B2B013A03190B2B053A0319FE2A35
:10195000013A0319FE2A0D3A0319DD2A013A031947
:10196000DD2A053A0319B52A013A0319C42AA23A15
:101970000319382CBB2C89262000B2010800200056
:101980007E30CF01E62488310330E6248831CF064B
:101990001E30E6248831CF064F08E6248831EF3028
:1019A000E62CD201D3014E1CD92C5008D207510885
:1019B000D33DD035D10DCF36CE0C4E084F04031D8C
:1019C000D32C5308CF005208CE000800CE005E088A
:1019D0000319E72C2100111AF22C20004E082300D5
:1019E0009A00F82C8331402388314E088331282314
:1019F0002100111620004E0808002000D000CF0161
:101A00004E085018CF07CE35D0365008031D002D94
:101A10004F0808004E0886004F088700403FD4005A
:101A2000413FD50052085007D6005308513DD7001A
:101A300055085702031D1E2D540856024E088600F5
:101A40004F08870003182B2D52088102413153089B
:101A5000813B7F3108005008C03F5108C13F08005A
:101A60004E0886004F088700403FD400413FD50014
:101A700052085407D6005308553DD7005108570265
:101A8000031D442D500856024E0886004F0887005B
:101A90000318512D5208810741315308813D7F3190
:101AA00008005008C03F5108C13F08003D34CF0036
:101AB000CE00CE0DCE0D21005C0820004E0603396D
:101AC0004E062100DC00672D21009110080028003F
:101AD00017150800CF00FF30CE00892DCE01EB2D69
:101AE000CE01CE0AEB2D0230872D0330872D043036
:101AF000872D4F08E53E872D4F08F13E872D4F0873
:101B0000F43E872D4F08FC3E872D4F08043ECE0043
:101B1000EB2D4F08043A0319852D013A0319852D41
:101B20000D3A0319822D013A0319822D033A031944
:101B3000822D013A0319822D073A03197F2D013AAC
:101B400003197F2D033A03197F2D013A03197F2DC5
:101B50001B3A03197C2D013A03197C2D033A031912
:101B60007C2D013A03197C2D0B3A0319792D013A8A
:101B70000319792D033A0319792D013A0319792DA7
:101B80005F3A0319772D013A0319772D053A0319A6
:101B9000752D013A0319732D0D3A0319752D013A6C
:101BA0000319732D053A0319752D013A0319732D85
:101BB0001D3A03196E2D013A0319702D053A0319C8
:101BC0006E2D013A0319702D0D3A03196E2D013A4D
:101BD0000319702DEB2D4E0808001F302000B605AC
:101BE000B701BC01013057258831FE28D500D3014B
:101BF000D201342E550886000330870101020318F4
:101C0000422ED301D30A422EEF268831FD2488319B
:101C10007D278831FF2DEF268831FD2488317D27EF
:101C200088310318422E5508023E86000630FD2DED
:101C3000EF268831FD2488310107D4005508033E82
:101C400086000A308701CE005508023E84008501D7
:101C50000008FD2488310107D2001830540203180F
:101C6000422E3C305202FF2D5108013A0319FA2D41
:101C7000033A0319042E013A03190B2E073A0319EC
:101C8000182E422E530808002000361C08005F2A38
:101C900020001B140800111C080011108C2688312C
:101CA00099019A01E330B605B61C592E852E3614DB
:101CB000862E3208403A0319572E013A0319572E3F
:101CC000053A0319572E013A0319572E0D3A0319F5
:101CD000572E013A0319572E053A0319572E013A88
:101CE0000319572E1D3A0319572E013A0319572E7F
:101CF000053A0319572E013A0319572E0D3A0319C5
:101D0000572E013A0319572E862EB6108926883190
:101D1000482E2100911408001B1008002000360EE8
:101D2000890C073903190800BC0A0B303C02031C5C
:101D30000800E82FEA302000CE000530CF008A27C7
:101D4000883123302000CE001530CF008227883123
:101D50005E302000CE000330CF00F027883178308D
:101D60002000CE001530CF00F82F97170800D23E84
:101D700084008501403F803F413F813F080084004F
:101D800001308500403F803F413F813F08004E08C1
:101D900023004407C60020004F082300453DC7002C
:101DA00040084607C8004108473DC90048082200CE
:101DB00008004E0823004207C40020004F082300FB
:101DC000433DC50020003A08CE000A30CF01D000C4
:101DD000D1010800403F803F413F813F0534550A13
:101DE00086000A308701CE0055088400850100086E
:101DF00008004E082300C20020004F082300C30043
:101E000020003908CE003C30CF01D000D1010800BD
:101E10002108053E840098300318013E8500000823
:101E200008003B082300C000C10120003808CE0094
:101E30005830CF01D0000230D100080086000130B8
:101E400087005B35080086005B35C83E84000800CB
:101E5000D23E2000CE00E830CF01D0000330D100C8
:101E6000C830D200D3010800C0002C30C035400774
:101E7000C1000A302000CE00230051080800D23EE5
:101E80002000CE00C830CF01D001D101D200D30153
:101E900008008600870101082000CE003C30CF01F9
:101EA000D000D1010800200C2000D400D40C540C28
:101EB0000F390800220020108730A005A013080069
:101EC00023004107C2008600013087000800860019
:101ED0000A3087012000CE000800E8302100C80049
:101EE0000330C90008005908A3005808A2000800E0
:101EF000220054082000590208000107D4001830BD
:101F0000540208004F082100E30020004E08210081
:101F1000E20008004F082100E50020004E082100E3
:101F2000E400080021005C1C08005C101030200058
:101F3000D2007030D3002030D4004C30D500A02F18
:101F40005508D6005608031908005308CF00520858
:101F5000CE0054088600013087000108D000B72762
:101F60008831D40AD20A0319D30AD603A22F00302B
:101F70008B1B0130D1004F083100920020004E0829
:101F800031009100200050083100930015171515FD
:101F90008B1355309600AA30960095149518CE2FC5
:101FA00015112000510C031C8B1303188B1708000C
:101FB0002000331D003433110134B31C0034B3103E
:101FC00001342000331C0034331001341F15080085
:101FD0001F30B605B701BC01023057258831FE28F5
:101FE0004F082100E70020004E082100E60008000D
:101FF0004F082100E90020004E082100E8000800F9
:10293E00640080010131890BA02C0034FE001200CE
:10294E001E00FE0BA62C00349012210062086304B8
:10295E000319080063088A0062080A00943108000F
:10296E0091132100640865040319080065088A00A4
:10297E0064080A009431080091102100660867046B
:10298E000319080067088A0066080A0094310800D7
:10299E0092102100680869040319080069088A006A
:1029AE0068080A00943108007E1CDE2CE72C2000FB
:1029BE004F082500920020004E08250091000800C7
:1029CE007108250092007008910008007E1CF02C02
:1029DE00F92C20004F082500960020004E082500F7
:1029EE0095000800710825009600700895000800F3
:1029FE007E1C022D0B2D20004F0826009200200079
:102A0E004E082600910008007108260092007008FA
:102A1E00910008007E1C142D1D2D20004F0826004D
:102A2E00960020004E08260095000800710826002A
:102A3E00960070089500080020003C30BF0A3F0247
:102A4E00031C372D3C30BF01BE0A3E02031C362D3F
:102A5E001830BE01BD0A3D020318BD013315B31473
:102A6E003314080020305E0203184D2D3508A03EA9
:102A7E00860001308700010823009A0020002030D4
:102A8E00B50A35020318B501DE0A0800210011123D
:102A9E000800C8340034C834003490340134403453
:102AAE000134903401340034003400340034E834FE
:102ABE000334C834003400340034F4340134F434B4
:102ACE000134F4340134C8340034F4340134DA34CB
:102ADE000734ED34143411341534FF341434DB342C
:102AEE0014345C0C890C3F3903199B2D2000B00A5D
:102AFE0030080739031D08002100DC1C972DA8257E
:102B0E0021005C0CF000700C3F39F000F003F00D6A
:102B1E00F00D5C08700603397006DC00DC1008004E
:102B2E009F252100DC140800B1252000B00108000B
:102B3E002500931397132600931397132C009913C4
:102B4E0008002500931797172600931797172C0048
:102B5E00991708002800171108008D315625953158
:102B6E008F31492795318C31D12495314F08DA00B8
:102B7E004E08D9008D31562595312000D400013EE6
:102B8E00860087010108D9070318DA0A22005508C2
:102B9E002000D600220054082000D5002200610833
:102BAE002000D800220060082000D70058085606E2
:102BBE00031DE32D57085506031D022EDD015D355D
:102BCE00623E8600013087005D358E31B726953125
:102BDE005D35623E86005D35C83E84008E31EA2644
:102BEE009531DD0A5D02031CE62D2100DD01DE01BB
:102BFE00DF018A31462A56085A06031D082E55084B
:102C0E005906031D1F2EDB015B35563E8600013033
:102C1E0087005B358E31B72695310530DB0A5B02B6
:102C2E00031C0B2E01302100DD00DE01DF01080048
:102C3E0058085A06031D252E57085906031D08006D
:102C4E00DC015C35623E8600013087005C358E31DA
:102C5E00B72695310530DC0A5C02031C282E0230A3
:102C6E001A2E10302000D0007030D1002030D2004B
:102C7E004C30D300D4269631DB015B35223EF9264B
:102C8E00963103195502031C512E09279631223E07
:102C9E00032796315B35563EF926963103195502B8
:102CAE00031C5E2E09279631563E032796315B355F
:102CBE00623EF926963103195502031C6A2E092726
:102CCE009631623E0327DA015B08D5002C30D535EC
:102CDE005507D6000A30CE005A088C31FD249631A5
:102CEE005607D700860001308700403FD800413F8D
:102CFE00D90003305902E93003195802031CA02EE3
:102D0E00E830D5000330D6005B08D7002C30D7351D
:102D1E005707D8000A30CE005A088C31FD24963160
:102D2E005807D9008600013087005508C03F560865
:102D3E00C13F0430DA0A5A02031C6B2E2200200C0B
:102D4E002000D500D50C550C0F39D600093056028F
:102D5E00031CB42E87302200A00505302200550238
:102D6E00A03003195402031CBE2ED401D501053028
:102D7E006102A03003196002031CC72EE001E101BD
:102D8E0005302102031CCD2E0430A1002000053099
:102D9E00DB0A5B0203180800442E5308D4005408C3
:102DAE000319080052088600013087005108CF0031
:102DBE005008CE00EB26963181002000D00A031970
:102DCE00D10AD20AD403D62E4F0831009200200029
:102DDE004E08310091001517151400000000310047
:102DEE0013080800860001308700403FD500413FA0
:102DFE00D60003305602E93486005508C03F560807
:102E0E00C13F0800E830D5000330D6005B3508001E
:102E1E003227973128279731AA279731B52797312F
:102E2E00C4279731CE2797317F2797318527973142
:102E3E008E27973199279731A4279731E12797311C
:102E4E00D92F6030320099009B0148309D0006302A
:102E5E009F009E01080022008C0180308D008E01A3
:102E6E00303021008C0060308D0005308E00043033
:102E7E0023008E008D018C01603024008D008C01AA
:102E8E0001308E0025008C018D018E0100308B1BD0
:102E9E0001302000CE008B13FA2797310F103D0022
:102EAE002508E0390C38A5002308E0390D38A300B9
:102EBE001208E0390E3892002108E0390F38A100CF
:102ECE002708E0390238A7003C001308E039103813
:102EDE0093003D001F08E03914389F00FA27973100
:102EEE000F1420004E1C7D2F8B1708008B1308002B
:102EFE008F302500930091019201F52F8F309700AE
:102F0E00950196011F08F33904389F0008008F3091
:102F1E00260093009101920125001F08CF39103829
:102F2E009F0008008F30260097009501960125001E
:102F3E001F083F3940389F00080080302C00990050
:102F4E0097019801F52F20009701D7309800FF3098
:102F5E009600950190122100901608003430200042
:102F6E009B00C8309C0099019A011110210011108C
:102F7E0020009113210091170800783020009F0047
:102F8E00F9309E009D0191102100911408007B30B4
:102F9E0028009700F930960095012000921021002C
:102FAE009214080021009D01D0309E009F019C01CB
:102FBE009B010800210091121112083023009F007E
:102FCE0090309D0024309E0001309C00A0309B006C
:102FDE0020002030B501B401DE0008001F08FC39C6
:102FEE0001389F00080055303C008F00AA308F003A
:102FFE000800073405340334013400340E34113420
:06300E00143417341A34DB
:020000040001F9
:08000E00ECDF3DFDFFFFFFFFE9
:00000001FF
