:0400000080312E28F5
:100008007E1480312000911F0D289031E920803125
:100018002C282100911C17282000911C17289031AA
:10002800F52080312C282000901E1E289031DD20DC
:1000380080312C28921C24289131012180312C28D0
:100048002100111E2C282000111E2C288731E127A1
:100058007E10090088312F282000D00A5008033963
:10006800031D37289D2220009731F6278031031978
:1000780042289731F1278031031D43286A289127A8
:10008800803101180800811C42287B30860023300B
:1000980049258031031942287B30860023304925C1
:1000A8008031013A0319672841258031023A031942
:1000B800672841258031033A031967284125803193
:1000C800043A031D69286A208031A028FA017A358C
:1000D800D43E4F258031CA3EE224803103187A2865
:1000E8007A35FB2480310318810A90287A35CA3E74
:1000F8004F258031D43EE2248031031887287A3591
:10010800D824803190287A35D43E860087017A3504
:10011800CA3E9631F62680317A3587257A35BE3E35
:100128008600413F8A00403F0A0005308031FA0AC4
:100138007A02031808006B28203021006302031C90
:10014800BC2820306306031DB2287B30860023308C
:1001580087008F258031FD208031BC284030630224
:10016800031CBC2840306306031DBD28EB208031EA
:10017800E30A7B30860023308700811F08008F2523
:100188008031053A0319D228033A0319D828013ACD
:100198000319DE280F3A0319E428EA2820004B083F
:1001A800F7004A08F6007D2920004B08F7004A08A6
:1001B800F6002C2920004B08F7004A08F6002E2AE2
:1001C80020004B08F7004A08F600CE2908007E30C8
:1001D800F10118218031033018218031F1061130E6
:1001E80018218031F106710818218031EF3018216B
:1001F8000800F1007E30F201182180310530182105
:100208008031F206413018218031F2060030182181
:100218008031F206710818218031F206720818211F
:100228008031EF3018210800F00020005E08031923
:1002380019292100111A2429700823009A00282955
:100248006F258031700857252100111670080800A5
:10025800C92480310530F101F0070318F10A770845
:10026800F3007608F200542480317108AB0070085E
:10027800AA00AA30860000308700203084000030B1
:1002880085000A30F80016001A00F80B47292708DD
:100298002B02031D512926082A02031858292A0867
:1002A800A6022B08A73B5A29A601A701AC012C35A9
:1002B800203E67258031CA3E3525803103186A29DA
:1002C8002C35FB2480310318810A76292C35CA3E47
:1002D80067258031203E35258031031876292C3555
:1002E800D82480310530AC0A2C02031C5B29B524C4
:1002F8000800C92480310630F101F0070318F10A1B
:100308007708F3007608F200542480317108AB00B6
:100318007008AA00B43086000030870020308400BE
:10032800003085000A30F80016001A00F80B9829EA
:100338002A08A6072B08A73D03302702E93003192E
:100348002602031CAB29E830A6000330A700AC0145
:100358002C35203E77258031CA3E1D258031031873
:10036800BB292C35FB2480310318810AC7292C3579
:10037800CA3E77258031203E1D2580310318C729C4
:100388002C35D82480310530AC0A2C02031CAC294A
:10039800B5240800C92480310530F101F00703189D
:1003A800F10A7708F3007608F200542480317108C6
:1003B800AB007008AA005430860001308700203056
:1003C8008400003085000A30F80016001A00F80B87
:1003D800E92925082B02031DF32924082A020318FA
:1003E800FA292A08A4022B08A53BFC29A401A50187
:1003F8002A08A6072B08A73D03302702E93003196E
:100408002602031C0B2AE830A6000330A700AC0123
:100418002C35203E7F258031CA3E2925803103189E
:100428001B2A2C35FB2480310318810A272A2C35F6
:10043800CA3E7F258031203E292580310318272A8E
:100448002C35D82480310530AC0A2C02031C0C2A28
:10045800B5240800C92480311030F101F0070318D1
:10046800F10A7708F3007608F20054248031710805
:10047800AB007008AA00A03086000030870020304A
:100488008400003085000A30F80016001A00F80BC6
:10049800492A2A08A4072B08A53D03302502E9307C
:1004A80003192402031C5C2AE830A4000330A500C9
:1004B80027082B02031D622A26082A020318692A24
:1004C8002A08A6022B08A73B6B2AA601A7012A081F
:1004D800A8072B08A93D03302902E930031928028F
:1004E800031C7A2AE830A8000330A900AC012C3597
:1004F800203E5F258031CA3E1125803103188A2AA3
:100508002C35FB2480310318810A962A2C35CA3EE3
:100518005F258031203E112580310318962A2C351D
:10052800D82480310530AC0A2C02031C7B2AB52460
:100538000800D4184C2BC001C10108004E088823BC
:100548008031AA002A35D43EF000E830F101F200EB
:100558000330F300F401F40AF5018F248031540EBE
:10056800890C0739031D08002A35D43E8600870107
:100578002A08A4007E300825803184002508273DFC
:10058800022508004E0888238031AA002A35D43E67
:10059800F000F101F201F301F401F40AF501692414
:1005A8008031B32AF4248031031D0800D4104E088A
:1005B80088238031AA00D430F6002A081724803115
:1005C80001300B2421005E140800F4248031031D3F
:1005D8000800D41054081F394038D400D501013020
:1005E8000B240800F4248031031D0800D41054089B
:1005F8001F396038D400D50101300B240800F424D9
:100608008031031D0800D41054081F398038D400E5
:10061800A8012808A400DA30082586002508273D07
:10062800870028358D31FE2580310530A80A28023B
:10063800031C0D2B01300B240800F4248031031D0A
:100648000800D41054081F39A038D400A90129087B
:10065800A400E630082586002508273D87002935AF
:100668008D31FE2580310530A90A2902031C2B2B68
:1006780001300B240800F4248031031D0800D41035
:1006880054081F392038D400D50101300B24080044
:100698004E08063A03193F2B163A0319E92A013A7C
:1006A8000319032B033A0319F62A013A0319212BDC
:1006B800533A0319C62A013A0319A22A053A03191B
:1006C800A22A013A0319A22A0D3A0319C62A013AA5
:1006D8000319C62A053A0319D62A013A0319D62A54
:1006E8001D3A0319D62A013A0319D62A053A0319DD
:1006F800C62A013A0319C62A0D3A0319A22A013A51
:100708000319A22A872B0800F100FF30F000A72B5D
:10071800F001092CF001F00A092C0230A52B033056
:10072800A52B0430A52B7108E53EA52B7108F13ED9
:10073800A52B7108F43EA52B7108FC3EA52B71086A
:10074800043EF000092C7108043A0319A32B013A5E
:100758000319A32B0D3A0319A02B013A0319A02B57
:10076800033A0319A02B013A0319A02B073A0319DE
:100778009D2B013A03199D2B033A03199D2B013A2E
:1007880003199D2B1B3A03199A2B013A03199A2B2B
:10079800033A03199A2B013A03199A2B0B3A0319B6
:1007A800972B013A0319972B033A0319972B013A10
:1007B8000319972B5F3A0319952B013A0319952BC7
:1007C800053A0319932B013A0319912B0D3A031992
:1007D800932B013A0319912B053A0319932B013AEC
:1007E8000319912B1D3A03198C2B013A03198E2BEF
:1007F800053A03198C2B013A03198E2B0D3A03196C
:100808008C2B013A03198E2B092C70080800F10073
:10081800F000F00DF00D21005E0870060339700637
:10082800DE00C6240800A2000430220203180800D3
:10083800A301760886008701403FA000413FA10040
:100848000330F60AF60A2102E930031920020318D8
:100858004E2C2308F700F801F735F80D2208F000B0
:100868000A30F101F200F301542480318830F90094
:100878002330FA0070087907FB0071087A3DFC0004
:1008880077087B07860078087C3D87002008C03FF2
:100898002108C13F0530A30A2302031808001D2CB4
:1008A800F401F501701C5C2C7208F4077308F53D1F
:1008B800F235F30DF136F00C70087104031D562C57
:1008C8007508F1007408F0000800700886007108C7
:1008D8008700403FF600413FF70074087207F800B0
:1008E8007508733DF90077087902031D7D2C760899
:1008F8007802700886007108870003188A2C74082B
:10090800810241317508813B7F3108007208C03F80
:100918007308C13F08007008860071088700403FCF
:10092800F600413FF70074087607F8007508773D30
:10093800F90073087902031DA32C72087802700865
:100948008600710887000318B02C740881074131AC
:100958007508813D7F3108007208C03F7308C13FA8
:100968000800F401743587257435BE3E8600413F82
:100978008A00403F0A0005308431F40A74020318E3
:100988000800B62C2800171508007B308600233095
:10099800870042310108003E840098300318013E68
:1009A80085000008F0000800CA3E86000130870173
:1009B800810200304131813B7F3108008600403F91
:1009C800F600413FF7007608013EF8000030773D19
:1009D800F90075087902031D0800740878020800F8
:1009E800C00A0319C10A0230410640040800CA3E81
:1009F8008600013087018107413108008500403FAA
:100A0800803F413F813F0800A501A435A50DA60000
:100A18002330A7002408260708008600403FFA0074
:100A2800413FFB0079087B02031D080078087A0221
:100A380008008600403FFA00413FFB0079087B022E
:100A4800031D080078087A0208008600403FFA0073
:100A5800413FFB0079087B02031D080078087A02F1
:100A680008008600403FFA00413FFB0079087B02FE
:100A7800031D080078087A0208007B308600010C04
:100A8800FD00FD0C7D0C0F390800010CFD00FD0C6C
:100A98007D0C0F39080086008701403FF400413F74
:100AA800F5007A35080081002030D20A5202031876
:100AB800D201DE03080086008701403FF800413F6D
:100AC800F9002C35080086008701403FF800413FB7
:100AD800F9002C350800111220005208203E86002B
:100AE80001308700080086008701403FF800413F39
:100AF800F9002C35080086008701403FF800413F87
:100B0800F9002C350800CA3E86008701403FF000F6
:100B1800413FF1000800010CFC00FC0C7C0C0F3973
:100B28000800F70120001A08FB001908FA009901CB
:100B38009A014E2E07307B02D13003197A02031C2A
:100B4800080009307B02C43003197A020318080030
:100B58005408E3390438D400C201C301CD01852704
:100B6800080000307B02DD3003197A02031CC52D12
:100B780001307B02543003197A020318C52DCD0ABF
:100B8800E32D02307B02D13003197A02031CE12DD8
:100B980003307B02C03003197A020318E12D0130BB
:100BA800F300F4014D0ADA2DF335F40D890BD82D35
:100BB8007308C2047408C304C32DE330D40510308D
:100BC8004D02031C0800540C890C0739013A031D17
:100BD800F62D430A4204031D2F2E5408E339083822
:100BE800D400312E540C890C0739023A031D312EDA
:100BF8008227803120004208F9004308F700770F68
:100C0800072E0130082E0030F300F4017906F500B4
:100C18007408F600750403192F2E79085E268031B2
:100C2800F800780F192EFF301C2E780B1F2E79082C
:100C3800CE0054142F2E033078060319272E0230C5
:100C48007806031D2F2E7908CE005408E3390C3896
:100C5800D400CC01312EE330D405C201C301CD014B
:100C6800080003307B02E93003197A02031C0800EC
:100C780004307B02E23003197A02031808000430BA
:100C88004C020318492ECC0A0800D4140800E3309B
:100C9800D4050800540C890C073903199E2D013A14
:100CA8000319B52D033A0319B52D013A0319352E49
:100CB8004B2E0800F200F101540E890C0739031D70
:100CC800162F5D30720603196D2E5C307206031DF7
:100CD800702EF101F10A802F103072060319842E4C
:100CE800113072060319842E123072060319842EED
:100CF800133072060319842E06307206031D862EE1
:100D08000330232F912780318118C52E802F6D2E17
:100D18009127803101186D2E8827803103196D2E97
:100D280088278031013A03196D2E88278031023ACD
:100D380003196D2E88278031033A03196D2E8827F1
:100D48008031043A03196D2E802F912780310118C4
:100D5800802F88278031031D6D2E802F91278031A9
:100D680001186D2E88278031031D6D2E0230232F28
:100D7800912780310118BA2E882780310319BA2E9D
:100D8800802F7208143A03196D2E013A03196D2E3B
:100D9800033A03196D2E013A03196D2E0F3A031900
:100DA8008C2E013A03198C2E033A0319A92E013A05
:100DB8000319A92E073A03198B2E013A03196D2E30
:100DC800033A03196D2E013A03196D2E5F3A031980
:100DD800BC2E013A0319BC2E053A0319BC2E013A60
:100DE8000319BC2E0D3A0319BC2E013A0319BC2E67
:100DF800053A0319B22E013A0319B22E1D3A031906
:100E0800B22E013A0319B22E053A0319BC2E013A43
:100E18000319BC2E0D3A0319BC2E013A0319BC2E36
:100E2800152F802F9731F62780310319252F9731F9
:100E3800F12780310319252F542FBA2EFF30F100E6
:100E4800802F7208073A03196D2E473A0319BA2EF4
:100E5800013A0319BA2E053A0319BA2E013A0319B1
:100E6800BA2E0D3A0319BA2E013A0319BA2E053AC9
:100E780003196D2E013A03196D2E1D3A03198B2E95
:100E8800013A03196D2E053A0319BA2E013A0319CE
:100E9800BA2E0D3A0319212F013A0319212F222FB7
:100EA800962780310319602F9B2780310319602F03
:100EB800A0278031031D802F7208043A03196D2E74
:100EC800013A03196D2E0D3A03196D2E013A0319D3
:100ED8006D2E033A03196D2E013A03196D2E073A48
:100EE80003198B2E013A03196D2E033A03196D2E3F
:100EF800013A03196D2E222F710808002100911460
:100F080008002100911008007B3086002330010C76
:100F1800F000F00C700C0F3908007B30860023308D
:100F280087000800540E890C0739013A0800540E4E
:100F3800890C0739023A0800540E890C0739033A1C
:100F480008005E0C890C3F390319C82F2000D10A0C
:100F580051080739031D08002100DE1CC42FD527BE
:100F680021005E0CF000700C3F39F000F003F00D2A
:100F7800F00D5E08700603397006DE00DE1008000A
:100F8800CC272100DE140800DE272000D10108004C
:100F98002500931397132600931397132C00991386
:100FA80008002500931797172600931797172C000A
:100FB8009917080028001711080020305E0203184E
:100FC800F52F5308203E86000130870001082300D2
:100FD8009A0020002030D30A53020318D301DE0AF6
:080FE8000800210011120800AD
:10100E00C8340034C83400349034013440340134D0
:10101E00903401340034003400340034E8340334A6
:10102E00C834003400340034F4340134F434013460
:10103E00F4340134C8340034F434013483341134BC
:10104E00373411345B3411344934113425341134AE
:10105E000730840088308500A0308600003087007D
:10106E000030FF002830913119218831D3308400AF
:10107E009030850054308600013087000030FF002C
:10108E000A309131192188317B308400233085005C
:10109E007530FE000030FF0091310D218831403057
:1010AE008400003085001E30FE000030FF009131BC
:1010BE000D218831C8308400003085001C30FE00C0
:1010CE000030FF0091310D21883120308400013035
:1010DE0085002030FE000030FF0091310D21883157
:1010EE007E1020007A2864258831182388318B17CA
:1010FE000B17532388313C21883102278831C822AF
:10110E0088310527640087319127883101189B2883
:10111E007B3086002330811C9B287B308600233059
:10112E00811F9B28CA208831C3228831CB22883167
:10113E0043238831562588315B258831003A0319BF
:10114E00AF28873191278831011CAF28B32488310D
:10115E005F258831003A0319892887319127883114
:10116E00011CC728540C890C0739043A0319C728E7
:10117E00540C890C0739053A0319C72849248831BC
:10118E000C238831892812301B2188312E08B80093
:10119E002D08B70044084504031DD8289026883131
:1011AE00EA2838084902031DDE28370848020318CA
:1011BE00E2289026883147083802031DE8284608A1
:1011CE0037020318EE283808C7003708C600C40ACD
:1011DE000319C50A01304502003003194402031CED
:1011EE000800C401C5018B134B08AE004A08AD00C0
:1011FE000F30AF00B0019531692546082D02B300BE
:10120E0047082E3BB40048083307B5004908343D63
:10121E00B600350E0F39CA00360EF039CA04360E36
:10122E000F39CB008B1708002000B000AF00AF0DB8
:10123E00AF0D21001D0820002F0603392F062100B7
:10124E009D001D140530890B2A29000021009D14D4
:10125E002000111F2F29111321001C082000AE00A1
:10126E0021001B082000AD0008000D302000B40046
:10127E00FD30B300A230890B4229B30B4229B40BC7
:10128E004229000064009531572588310230200034
:10129E00B4004D30B3007430890B5329B30B53296E
:1012AE00B40B532900008731912788310119622927
:1012BE002000B70168297B309631E2268831200064
:1012CE00B700B80137089631012688310230200068
:1012DE00B4004D30B3007430890B7329B30B7329EE
:1012EE00B40B732900000230963117268831023074
:1012FE002000B4004D30B3007430890B8429B30B39
:10130E008429B40B842900007A2288315126953124
:10131E00692588312E08BB002D08BA007A222000DC
:10132E00B300013E860087010108BA070318BB0A05
:10133E008731912788310118102A7B308600811859
:10134E00A9297B2A7B3086002330870085268831A9
:10135E0003190E2A7B308600233085268831210022
:10136E00E2000130E3007B30860023308700010C61
:10137E002000B300B30C330C0F39013A0319D129F5
:10138E00033A0319E429013A0319F229073A03191A
:10139E00002A0F2AB0301A26403FD600413FD70010
:1013AE00403FD800413FD900403FDA00413FDB00CB
:1013BE00403FDC00413FDD000800BA301A2688317C
:1013CE00BC3073268831BE3079268831C0307F26F6
:1013DE008831C230652EC4301A268831C630732645
:1013EE008831C83079268831CA307F268831CC3092
:1013FE00652ECE301A268831D03073268831D23001
:10140E0079268831D4307F268831D630652E8E22CB
:10141E000800E430B90140268831B400D8303426B3
:10142E008831D83086002330870003182A2A403F9F
:10143E00B300413FB4003B02031D272A33083A0292
:10144E00031C4B2A3E2A403FB300413FB400E43018
:10145E003426883103184B2AD83040268831B40000
:10146E003B02031D3C2A33083A020318492AE43092
:10147E0040268831B4003B02031D472A33083A0246
:10148E0003184B2AB901B90A39080319642ABC0199
:10149E003C08B300DA30F0258831FE2588313C084F
:1014AE00B300DA30F0258831CA3E84002326883115
:1014BE00BC0A3C020318792A4F2ABC013C08B3002F
:1014CE00E630F0258831FE2588313C08B300E63041
:1014DE00F0258831CA3E840023268831BC0A3C029E
:1014EE00031C652AAA2A5B347B30860023308700D2
:1014FE008110AD012D35D43E860000308701C03FEE
:10150E00C13F0530AD0A2D0203180800812A97311C
:10151E00EB278831B1013108AD007E30AE01AD351B
:10152E00AE0DAF002330B0002D082F0786002E0819
:10153E00303D87003135FE2588310530B10A310244
:10154E0003180800922A2000B1013135CA3E8600E8
:10155E008701403FAD00413FAE003135BE3E8600B3
:10156E00413F8A00403F0A008A3120000530B10A0F
:10157E00310203180800AC2A2000541C08009131D7
:10158E00AF2920001B140800111C080011100A239B
:10159E00883199019A01E330D405D41CD92A052B40
:1015AE005414062B4E08403A0319D72A013A031950
:1015BE00D72A053A0319D72A013A0319D72A0D3A21
:1015CE000319D72A013A0319D72A053A0319D72A3C
:1015DE00013A0319D72A1D3A0319D72A013A0319DA
:1015EE00D72A053A0319D72A013A0319D72A0D3AF1
:1015FE000319D72A013A0319D72A062BD41096318C
:10160E00BB268831C82A1B100800540E890C0739D6
:10161E0003190800DA0A0B305A02031C0800913134
:10162E00A72995302000AD000530AE003B23883150
:10163E006D302000AD001130AE00332388313030D4
:10164E002000AD000030AE0007278831A530200005
:10165E00AD000730AE000F2F2E082100EB0020004A
:10166E002D082100EA0008002E082100E9002000C4
:10167E002D082100E800080021005E1C08005E1005
:10168E0010302000B1007030B2007B30B300233038
:10169E00B4007530B500AA2F10302000AF007030A6
:1016AE00B0007B30B1002330B2007530B3002D2571
:1016BE008831BF013F08B6007E30CC258831031932
:1016CE003A02031C6F2B132688317E30DF258831BA
:1016DE003F08B600DA30CC25883103193A02031CD4
:1016EE007D2B13268831DA30DF2588313F08B6008E
:1016FE00E630CC25883103193A02031C8B2B1326B6
:10170E008831E630DF2588313F08B600B030CC2571
:10171E00883103193A02031C992B13268831B030F5
:10172E00DF2588313F08B600BA30CC258831031941
:10173E003A02031CA72B13268831BA30DF258831D5
:10174E003F08B600C430CC25883103193A02031C79
:10175E00B52B13268831C430DF2588313F08B600FB
:10176E00CE30CC25883103193A02031CC22B132626
:10177E008831CE30DF25BE013F08B600B701B63541
:10178E00B70D3E089731B5278831953169258831D7
:10179E008830B8002330B9002D083807BA002E085B
:1017AE00393DBB0036083A07860037083B3D8700B7
:1017BE00403FBC00413FBD0003303D02E9300319FC
:1017CE003C02031C092C1326B901B835B90D3E088D
:1017DE009731B52788319531692588318830BA001F
:1017EE002330BB002D083A07BC002E083B3DBD0040
:1017FE0038083C07860039083D3D87003608C03F53
:10180E003708C13F0430BE0A3E02031CC32B7B3097
:10181E00860023308700010CB600B60C360C0F394B
:10182E00B70009303702031C202C7B30860087302E
:10183E008105D8304726883103193602031C2A2C1D
:10184E00D83095268831E430472688310319360280
:10185E00031C342CE430952688317B3086002330EF
:10186E008700053042310102031C432C7D30860077
:10187E0023308700043081000530BF0A3F02031C6D
:10188E00612B172F21005F0B5B2C00306102FA30A9
:10189E000319600203185B2C5B260430B100B20101
:1018AE00953131258831872C02305F06031D6E2C51
:1018BE0003306102E8300319600203186E2C5B26B8
:1018CE00B101B10AB201953131258831872CDF0182
:1018DE0055084B02031D752C54084A0203187B2C25
:1018EE00CA0A0319CB0A872C4B085502031D812CFB
:1018FE004A0854020318872C0130CA020030CB3B31
:10190E002100E00A0319E10A6018B22C2000BB0185
:10191E00BB0A3B35D43E6B268831CA3E2826883119
:10192E000318A02C3B358431FB2488310318810A1F
:10193E00AD2C3B35CA3E6B268831D43E28268831E5
:10194E000318AD2C3B358431D82488310530BB0AC1
:10195E003B02031C902CAA2A7A22883151269531FB
:10196E00692588312E08BC002D08BB007A228831EB
:10197E002000B300013E860087010108BB07031853
:10198E00BC0AD830860023308700403FB700413F65
:10199E00B800E4308600403FB900413FBA00380637
:1019AE00031DDB2C39083706031DF92CBF013F0838
:1019BE00B300E630062688313F35FE2588313F08D4
:1019CE00B300E630062688313F35CA3E8400232612
:1019DE008831BF0A3F02031CDE2C2100DF01E0012B
:1019EE00E101AA2A38083C06031DFF2C37083B06E6
:1019FE00031D152DBD013D08B300DA3006268831D2
:101A0E003D35FE2588310530BD0A3D02031C022DF1
:101A1E0001302100DF00E001E10108003A083C0638
:101A2E00031D1B2D39083B06031D0800BE013E0891
:101A3E00B300E630062688313E35FE258831053066
:101A4E00BE0A3E02031C1E2D0230102D3308B500B7
:101A5E003508031908003008AE002F08AD004825E0
:101A6E0088312000B400310886003208870034081F
:101A7E008100AF0A0319B00AB10A0319B20AB503FD
:101A8E002F2D2E083100920020002D0831009100DC
:101A9E00151715140000000031001308080020006F
:101AAE004F1D00344F110134CF1C0034CF100134C0
:101ABE0020004F1C00344F1001349A2688317D25AA
:101ACE008831B2258831BD258831ED268831F7263B
:101ADE008831872588318D25883196258831A12535
:101AEE008831AC258831EC278831E42F6030320004
:101AFE0099009B0148309D0006309F009E01080012
:101B0E008F3025009300910192018B2E8F3097001C
:101B1E00950196011F08F33904389F0008008F3095
:101B2E00260093009101920125001F08CF3910382D
:101B3E009F0008008F302600970095019601250022
:101B4E001F083F3940389F00080080302C00990054
:101B5E00970198018B2E20009701D7309800FF3007
:101B6E009600950190122100901608003430200046
:101B7E009B00C8309C0099019A0111102100111090
:101B8E0020009113210091170800B701B635B70D4B
:101B9E00B8002330B9003608380786003708393DBB
:101BAE008700403FBA00413FBB0003303B02E9349F
:101BBE00B901B835B90DBA002330BB0038083A0761
:101BCE00860039083B3D87003608C03F3708C13FC5
:101BDE000800B401B335B40DB5002330B600330898
:101BEE00350786003408363D87003C350800D43E64
:101BFE0084008501403F803F413F813F0800B40192
:101C0E00B335B40DB5002330B60033083507860062
:101C1E003408363D87000800E830B6000330B700C0
:101C2E003F08B8000800860023308700403F21009F
:101C3E00D400413FD5000800403F803F413F813FE7
:101C4E0005348600403FB900413FBA0038083A02D9
:101C5E00031D08003708390208008600403FB50012
:101C6E00413FB60034083602031D08003308350222
:101C7E000800860023308700403FB300413F080034
:101C8E00860023308700403FB600413FB700053045
:101C9E003702A0348600870101082000AD003C30D9
:101CAE00AE01AF00B0010800CA302000AD00003018
:101CBE00AE00E830AF000330B00008008600403FB1
:101CCE00DC00413FDD00080086008701403FB70081
:101CDE00413FB8003B3508008600403FD600413FEB
:101CEE00D70008008600403FD800413FD9000800C9
:101CFE008600403FDA00413FDB000800010CB300D4
:101D0E00B30C330C0F3908001F08FC3901389F0043
:101D1E0008003808C9003708C800080086000030DF
:101D2E00C03FC13F080022008C0180308D008E0123
:101D3E00303021008C0060308D0005308E00043074
:101D4E0023008E008D018C01603024008D008C01EB
:101D5E0001308E0025008C018D018E0100308B1B11
:101D6E0001302000AD008B13E72688310F103D00A7
:101D7E002508E0390C38A5002308E0390D38A300FA
:101D8E001208E0390E3892002108E0390F38A10010
:101D9E002708E0390238A7003C001308E039103854
:101DAE0093003D001F08E03914389F00E726883164
:101DBE000F1420002D1CE52E8B1708008B13080026
:101DCE0055303C008F00AA308F000800783020007C
:101DDE009F00F9309E009D01911021009114080082
:101DEE007B3028009700F930960095012000921064
:101DFE002100921408002000971708001F150800F4
:101E0E002E082100E70020002D082100E600080022
:101E1E002E082100E50020002D082100E400080016
:101E2E007B3086002330870055304131010603197F
:101E3E0008007C3086002330870055308100B301C6
:101E4E00A3278831DA30732788313308AD00E630A6
:101E5E0084278831B030732788313308AD00BA300B
:101E6E0084278831C43073278831A3278831CE3038
:101E7E00732788310530B30A3302031C272F8630AF
:101E8E00AD000130AE00D8308600233087002D081B
:101E9E00C03F2E08C13F5630AD000430AE00E430D6
:101EAE0086009A278831EA3086009A27BE3086004F
:101EBE002D08C03F2E08C13FC43086000030C03F01
:101ECE00C13FC63086000030C03FC13FD0308600D3
:101EDE000030C03FC13F0800B001AF35B00DB100BA
:101EEE002330B2002F08310786003008323D8700BC
:101EFE002D08C03F2E08C13F0800AE01AD35AE0D16
:101F0E00AF002330B0002D082F0786002E08303D7D
:101F1E0087000030C03FC13FE830AD000330AE0057
:101F2E003308AF0008002D08C03F2E08C13FE8302F
:101F3E00AD000330AE000800E830AD000330AE0057
:101F4E003308AF0008003508B6003608031908003C
:101F5E003208AE003108AD00330886003408870021
:101F6E000108AF00C3278831B30A0319B40AB10AB6
:101F7E000319B20AB603AC2F00308B1B0130B00030
:101F8E002E083100920020002D0831009100200013
:101F9E002F0831009300151715158B135530960029
:101FAE00AA30960095149518DA2F15112000300CD2
:101FBE00031C8B1303188B17080021009D01D030D2
:101FCE009E009F019C019B0108002100911211129D
:101FDE00083023009F0090309D0024309E00013079
:101FEE009C00A0309B0020002030D301D201DE00E7
:021FFE000800D9
:1021A60000340034003400345834023440340034EF
:1021B60000340034901221006A086B0403190800E9
:1021C6006B088A006A080A00903108009113210002
:1021D600680869040319080069088A0068080A0083
:1021E6009031080091102100660867040319080061
:1021F60067088A0066080A009031080092102100DC
:10220600640865040319080065088A0064080A0062
:10221600913108006400013080010131FE02003076
:10222600FF3B7F087E04031900340E29FE001200CE
:102236001E000130FE020030FF3B7F087E040319BA
:1022460000341A297E1C2829312920002E08250051
:10225600920020002D082500910008007108250035
:1022660092007008910008007E1C3A29432920003C
:102276002E082500960020002D0825009500080050
:102286007108250096007008950008007E1C4C29F0
:10229600552920002E082600920020002D08260031
:1022A600910008007108260092007008910008004D
:1022B6007E1C5E29672920002E0826009600200035
:1022C6002D08260095000800710826009600700863
:1022D6009500080020003C30DD0A5D02031C8129C0
:1022E6003C30DD01DC0A5C02031C80291830DC016D
:1022F600DB0A5B020318DB014F15CF144F140800ED
:102306007E1C8629982920002E08B0002D08AF00D3
:102316000630AF35B00D890B8C292F082C0097009D
:10232600200030082C00980008007108F30070089F
:10233600F2000630F235F30D890B9D2972082C0048
:1023460097007308980008001F30D405D501DA01FC
:102356000230452689313C295410B52691318C2C02
:1023660057259131BB2708388100013081130110B0
:102376002100E20021005E1489313C219131072DB4
:1023860057259131BB279131103881000230B92988
:1023960057259131BB279131183881000330B9296F
:1023A60057259131BB279131203881000430B92956
:1023B600572591314E087E2591312200C0007B3091
:1023C600860023308700C00DC00DC00D01084006F1
:1023D6008739400681008117011021005E142330E1
:1023E600010C2200C000C00C400C0F392100E20095
:1023F600BF29572591317B30860023308700031093
:10240600811C03140030093D2200C0002330C00D9A
:1024160001084006FD394006810023300110BD2920
:102426008731912791310118072D57259131EB27D7
:10243600011421005E1489313C2191312200CA0128
:102446004A35D43E860087014A35CA3EF626913182
:102456000530CA0A4A020318072D232A5725913147
:102466004E087E2591312200D30053354D279131F8
:10247600EF26913131259131540E890C0739031D10
:10248600522AAB2791315335D43E86008701530833
:10249600C0007E30BE26913121005E14072D20003B
:1024A600DA01072D572591314E087E2591312200FC
:1024B600D3005335D32791310B2591313F2A572528
:1024C60091314E087E2591312200D300CB01053093
:1024D6004B0203187C2A4B08C2279131B52791314C
:1024E6006925913121274B358D31FE259131CB0A56
:1024F6006A2A2000540E890C0739031D522AAB277D
:102506009131CC0105304C0203184F2A4C08C227E2
:102516009131B52791316925913121274C08C600A3
:102526007E30C701C635C70DC8002330C90046082E
:10253600480784004708493D853102259131CC0A78
:10254600852A7B30C9279131031DC12ACF01053069
:102556004F020318B92B4F354D279131EF26913194
:102566003125913122004F35D43E860087014F0830
:10257600C0007E30BE269131CF0AAA2ACF269131DD
:10258600013A031DDE2AD001053050020318B92B8B
:1025960050354D279131EF26913131259131220069
:1025A6005035D43E860087015008C000B030BE26A4
:1025B6009131D00AC72ACF269131023A031DED2A5E
:1025C600A3279131D926913131259131BE30532738
:1025D6009131B92BCF269131033A031D092BA3273D
:1025E6009131D926913131259131DA30AD00003063
:1025F600D926913131259131DC30AD000030D92614
:1026060091313125913137279131B92BCF2691312F
:10261600043A031DB92BD4302000AD000030D92672
:10262600913131259131D830AD000030D926913124
:1026360031259131DA30AD000030D926913131257E
:102646009131DC30AD000030D92691313125913100
:10265600B72B7B30C9279131031D472BD10105309C
:1026660051020318B92B5135D32791310B259131DE
:1026760022005135D43E860087015108C0007E30C5
:10268600BE269131D10A322BCF269131013A031D54
:102696006A2BD201053052020318B92B5235D43EAB
:1026A6002000AD006430AE01AF00C830B001B1000B
:1026B600B2010B25913122005235D43E86008701A6
:1026C6005208C000B030BE269131D20A4D2BCF261B
:1026D6009131023A031D792BA7279131FD269131BD
:1026E6000B259131BE3053279131B92BCF2691312D
:1026F600033A031D952BA7279131FD2691310B2512
:102706009131DA30AD000030FD2691310B25913143
:10271600DC30AD000030FD2691310B259131372795
:102726009131B92BCF269131043A031DB92BD43000
:102736002000AD000030FD2691310B259131D830B7
:10274600AD000030FD2691310B259131DA30AD0018
:102756000030FD2691310B259131DC30AD00003083
:10276600FD2691310B259131052791317B3086006D
:1027760023308700011081134F2A7D30AD002330AE
:10278600AE00AF01B001B101B10AB2010B25913122
:102796007B30E2269131012691314F2A7D30AD0002
:1027A6002330AE000430AF00B001B101B10AB2016E
:1027B600312591317B30E2269131012691314F2A24
:1027C600043055020318F12B5508563E8600870142
:1027D6004E087E2591318100D50AF22BD501550888
:1027E600B000563067269131003A031D002C0330A5
:1027F6004526913152269131522A04305506031D41
:10280600522A873196279131031D272C8A317A2245
:102816009131E527913156085B26570781008A31A9
:102826007A2291312200C000013EE52791315808F5
:102836005B2659078100873191279131011CFD2BB9
:1028460089313C219131FD2B87319B279131031D25
:102856003C2C96279131692591318727913169253D
:10286600913176279131692591315C279131D830A4
:10287600502C8731A0279131031DFD2B96279131CE
:1028860069259131872791316925913176279131D3
:10289600692591315C279131E430DD2791312100A2
:1028A6005E141E2CF6279131031D6F2C2200CD01DC
:1028B60005304D0203186A2C4D35D43E860087013B
:1028C6004D08C000DA30BE269131CD0A5B2C2100BE
:1028D6005E1452269131072DF1279131031D072DE4
:1028E6002200CE0105304E0203186A2C4E35D43E26
:1028F600860087014E08C000E630BE269131CE0A1A
:10290600752C1F30D405D501DA01033045269131E7
:10291600072D20004E08043A0319E32B013A031948
:10292600E32B023A0319552C0F3A0319E32B013A0C
:102936000319E32B033A0319E32B013A0319E32B9B
:10294600073A0319E32B013A0319E32B033A031958
:10295600E32B013A0319E32B1B3A0319DB29013A4E
:102966000319DB29033A0319DB29013A0319DB2989
:102976000F3A03192C2B013A0319A42A033A031917
:10298600C02B013A0319D12B073A0319B329013A8F
:102996000319C329033A0319CB29013A0319D32989
:1029A6005F3A0319552A013A0319312A053A0319E0
:1029B600312A013A0319312A0D3A0319552A013AE7
:1029C6000319552A053A0319622A013A0319622A9C
:1029D6001D3A0319622A013A0319622A053A0319B4
:1029E600552A013A0319552A0D3A0319312A013A93
:1029F6000319312A053A0319FC29013A0319132A46
:102A0600A23A0319842C072DBB262000CE0108000C
:102A16002D0886002E088700403FB300413FB400D2
:102A260031082F07B5003208303DB60034083602AB
:102A3600031D1F2D330835022D0886002E0887003A
:102A460003182C2D3108810241313208813B7F3138
:102A560008002F08C03F3008C13F08002D08860037
:102A66002E088700403FB300413FB40031083307CA
:102A7600B5003208343DB60030083602031D452D38
:102A86002F0835022D0886002E0887000318522DC0
:102A96003108810741313208813D7F3108002F0816
:102AA600C03F3008C13F080020007E30AE012E2610
:102AB600913103302E269131AE061E302E269131ED
:102AC600AE062E082E269131EF302E2EB101B20120
:102AD6002D1C712D2F08B1073008B23DAF35B00D52
:102AE600AE36AD0C2D082E04031D6B2D3208AE003C
:102AF6003108AD000800AE00FF30AD009D2DAD01E0
:102B0600FF2DAD01AD0AFF2D02309B2D03309B2D0D
:102B160004309B2D2E08E53E9B2D2E08F13E9B2D65
:102B26002E08F43E9B2D2E08FC3E9B2D2E08043EBF
:102B3600AD00FF2D2E08043A0319992D013A031909
:102B4600992D0D3A0319962D013A0319962D033A3C
:102B56000319962D013A0319962D073A0319932D59
:102B6600013A0319932D033A0319932D013A0319D8
:102B7600932D1B3A0319902D013A0319902D033A10
:102B86000319902D013A0319902D0B3A03198D2D37
:102B9600013A03198D2D033A03198D2D013A0319B4
:102BA6008D2D5F3A03198B2D013A03198B2D053AAA
:102BB6000319892D013A0319872D0D3A0319892D19
:102BC600013A0319872D053A0319892D013A03198C
:102BD600872D1D3A0319822D013A0319842D053AD2
:102BE6000319822D013A0319842D0D3A0319822DFA
:102BF600013A0319842DFF2D2D080800AE007E3002
:102C0600AF012E26913104302E269131AF06313098
:102C16002E269131AF062E082E269131AF062F08AB
:102C26002E269131EF302E2E2000AE007E30AF01E1
:102C36002E26913104302E269131AF0633302E26C2
:102C46009131AF062E082E269131AF062F082E267B
:102C56009131EF302E2EAD005E0803192F2E210084
:102C6600111A3A2E20002D0823009A00402E853195
:102C76006F2591312D088531572521001116200029
:102C86002D080800AE00AD00AD0DAD0D21005E08AB
:102C960020002D0603392D062100DE00B82E1F3038
:102CA6002000D405D501DA010130452689313C29B9
:102CB600AF00AE012D082F18AE07AD35AF362F0881
:102CC600031D5D2E2E080800B400B201B101A52E29
:102CD600340886000330870101020318B32EB201BF
:102CE600B20AB32E6C2791315B269131FB279131C5
:102CF600702E6C2791315B269131FB279131031899
:102D0600B32E3408023E860006306E2E6C279131B3
:102D16005B2691310107B3003408033E86000A3072
:102D26008701AD003408023E8400850100085B2659
:102D360091310107B100183033020318B32E3C302D
:102D46003102702E3008013A03196B2E033A03192B
:102D5600752E013A03197C2E073A0319892EB32ED4
:102D660032080800210091100800280017150800F5
:102D7600210091140800C101C035C10DC2002330E5
:102D8600C3004008420784004108433D8500403F98
:102D9600803F413F813F08007B308600233087001B
:102DA600010CC000C00C400C0F390800AE00E83022
:102DB600AF000330B000C830B100B2010800860091
:102DC6002330870042310108053E840098300318FD
:102DD600013E850000080800AF000330B000C8308F
:102DE600B100B201080084008501403F803F413FA9
:102DF600813F0800AE006430AF00C830B001B100BA
:102E0600B2010800CE308600233087002100540826
:102E1600C03F5508C13FD23086005808C03F590808
:102E2600C13FD43086005A08C03F5B08C13FD63048
:102E360086005C08C03F5D08C13F0800883022005C
:102E4600C2002330C30020002D0822004207C40020
:102E560020002E082200433DC50040084407860096
:102E66004108453D87000800C830860023308700AA
:102E760021005808C03F5908C13FCA3086005A0889
:102E8600C03F5B08C13FCC3086005C08C03F5D0890
:102E9600C13F0800D43E2000AD00E830AE01080076
:102EA60086002330870021005808C03F5908C13FDB
:102EB60008002D0822004407C60020002E08220024
:102EC600453DC70040084607C8004108473DC900C0
:102ED6000800340A86000A308701AD0034088400F1
:102EE6008501000808002D0822004207C4002000C2
:102EF6002E082200433DC50020005808AD000A30C8
:102F0600AE01AF00B00108002D082200C20020006B
:102F16002E082200C30020005708AD003C30AE0149
:102F2600AF00B001080059082200C000C10120000E
:102F36005608AD005830AE01AF000230B0000800B0
:102F4600D8302000AD000034D8302000AD00003469
:102F56007B3086002330870087300110810581137E
:102F660022000800AD000A30AE01AF00B001080033
:102F76007B30860023308700010887390800C000AF
:102F8600C101C035C10D530820000800860023305A
:102F96008700010C2200C000C00C400C0F3908004D
:102FA600D43E2000AD00C830AE01AF01B001B10083
:102FB600B20108008600233087004808C03F490850
:102FC600C13F080086000A3087012000AD000800D6
:102FD6007B3086002330870081140800540E890C4C
:102FE6000739053A0800540E890C0739043A0800D7
:102FF6000107B300183033020800073405340334E0
:0E300600013400340E341134143417341A34EB
:020000040001F9
:08000E00ECDF3DFDFFFFFFFFE9
:00000001FF
